{
  "abi": [
    {
      "inputs": [
        {
          "internalType": "address",
          "name": "_artworkAddress",
          "type": "address"
        },
        {
          "internalType": "address[]",
          "name": "_tokenContracts",
          "type": "address[]"
        },
        {
          "internalType": "uint8",
          "name": "_numTemplates",
          "type": "uint8"
        },
        {
          "internalType": "string",
          "name": "_initialBaseURI",
          "type": "string"
        },
        {
          "internalType": "address",
          "name": "_owner",
          "type": "address"
        }
      ],
      "stateMutability": "nonpayable",
      "type": "constructor"
    },
    {
      "inputs": [],
      "name": "InvalidMessageLength",
      "type": "error"
    },
    {
      "inputs": [],
      "name": "InvalidTemplate",
      "type": "error"
    },
    {
      "inputs": [],
      "name": "InvalidToken",
      "type": "error"
    },
    {
      "inputs": [],
      "name": "MintClosed",
      "type": "error"
    },
    {
      "inputs": [],
      "name": "NoCover",
      "type": "error"
    },
    {
      "inputs": [],
      "name": "NotOwnerOfToken",
      "type": "error"
    },
    {
      "anonymous": false,
      "inputs": [
        {
          "indexed": true,
          "internalType": "address",
          "name": "owner",
          "type": "address"
        },
        {
          "indexed": true,
          "internalType": "address",
          "name": "spender",
          "type": "address"
        },
        {
          "indexed": true,
          "internalType": "uint256",
          "name": "id",
          "type": "uint256"
        }
      ],
      "name": "Approval",
      "type": "event"
    },
    {
      "anonymous": false,
      "inputs": [
        {
          "indexed": true,
          "internalType": "address",
          "name": "owner",
          "type": "address"
        },
        {
          "indexed": true,
          "internalType": "address",
          "name": "operator",
          "type": "address"
        },
        {
          "indexed": false,
          "internalType": "bool",
          "name": "approved",
          "type": "bool"
        }
      ],
      "name": "ApprovalForAll",
      "type": "event"
    },
    {
      "anonymous": false,
      "inputs": [
        {
          "indexed": true,
          "internalType": "address",
          "name": "user",
          "type": "address"
        },
        {
          "indexed": true,
          "internalType": "address",
          "name": "newOwner",
          "type": "address"
        }
      ],
      "name": "OwnershipTransferred",
      "type": "event"
    },
    {
      "anonymous": false,
      "inputs": [
        {
          "indexed": true,
          "internalType": "address",
          "name": "from",
          "type": "address"
        },
        {
          "indexed": true,
          "internalType": "address",
          "name": "to",
          "type": "address"
        },
        {
          "indexed": true,
          "internalType": "uint256",
          "name": "id",
          "type": "uint256"
        }
      ],
      "name": "Transfer",
      "type": "event"
    },
    {
      "anonymous": false,
      "inputs": [
        {
          "components": [
            {
              "internalType": "uint24",
              "name": "card",
              "type": "uint24"
            },
            {
              "internalType": "address",
              "name": "tokenContract",
              "type": "address"
            },
            {
              "internalType": "uint16",
              "name": "token",
              "type": "uint16"
            },
            {
              "internalType": "uint8",
              "name": "artwork",
              "type": "uint8"
            },
            {
              "internalType": "uint8",
              "name": "template",
              "type": "uint8"
            },
            {
              "internalType": "string",
              "name": "message",
              "type": "string"
            },
            {
              "internalType": "address",
              "name": "sender",
              "type": "address"
            },
            {
              "internalType": "address",
              "name": "recipient",
              "type": "address"
            }
          ],
          "indexed": false,
          "internalType": "struct WizzmasCard.Card",
          "name": "data",
          "type": "tuple"
        }
      ],
      "name": "WizzmasCardMinted",
      "type": "event"
    },
    {
      "inputs": [
        {
          "internalType": "address",
          "name": "spender",
          "type": "address"
        },
        {
          "internalType": "uint256",
          "name": "id",
          "type": "uint256"
        }
      ],
      "name": "approve",
      "outputs": [],
      "stateMutability": "nonpayable",
      "type": "function"
    },
    {
      "inputs": [],
      "name": "artworkAddress",
      "outputs": [
        {
          "internalType": "address",
          "name": "",
          "type": "address"
        }
      ],
      "stateMutability": "view",
      "type": "function"
    },
    {
      "inputs": [
        {
          "internalType": "address",
          "name": "owner",
          "type": "address"
        }
      ],
      "name": "balanceOf",
      "outputs": [
        {
          "internalType": "uint256",
          "name": "",
          "type": "uint256"
        }
      ],
      "stateMutability": "view",
      "type": "function"
    },
    {
      "inputs": [],
      "name": "baseURI",
      "outputs": [
        {
          "internalType": "string",
          "name": "",
          "type": "string"
        }
      ],
      "stateMutability": "view",
      "type": "function"
    },
    {
      "inputs": [
        {
          "internalType": "uint256",
          "name": "",
          "type": "uint256"
        }
      ],
      "name": "getApproved",
      "outputs": [
        {
          "internalType": "address",
          "name": "",
          "type": "address"
        }
      ],
      "stateMutability": "view",
      "type": "function"
    },
    {
      "inputs": [
        {
          "internalType": "uint24",
          "name": "cardId",
          "type": "uint24"
        }
      ],
      "name": "getCard",
      "outputs": [
        {
          "components": [
            {
              "internalType": "uint24",
              "name": "card",
              "type": "uint24"
            },
            {
              "internalType": "address",
              "name": "tokenContract",
              "type": "address"
            },
            {
              "internalType": "uint16",
              "name": "token",
              "type": "uint16"
            },
            {
              "internalType": "uint8",
              "name": "artwork",
              "type": "uint8"
            },
            {
              "internalType": "uint8",
              "name": "template",
              "type": "uint8"
            },
            {
              "internalType": "string",
              "name": "message",
              "type": "string"
            },
            {
              "internalType": "address",
              "name": "sender",
              "type": "address"
            },
            {
              "internalType": "address",
              "name": "recipient",
              "type": "address"
            }
          ],
          "internalType": "struct WizzmasCard.Card",
          "name": "",
          "type": "tuple"
        }
      ],
      "stateMutability": "view",
      "type": "function"
    },
    {
      "inputs": [
        {
          "internalType": "address",
          "name": "recipient",
          "type": "address"
        }
      ],
      "name": "getRecipientCardIds",
      "outputs": [
        {
          "internalType": "uint24[]",
          "name": "",
          "type": "uint24[]"
        }
      ],
      "stateMutability": "view",
      "type": "function"
    },
    {
      "inputs": [
        {
          "internalType": "address",
          "name": "sender",
          "type": "address"
        }
      ],
      "name": "getSenderCardIds",
      "outputs": [
        {
          "internalType": "uint24[]",
          "name": "",
          "type": "uint24[]"
        }
      ],
      "stateMutability": "view",
      "type": "function"
    },
    {
      "inputs": [
        {
          "internalType": "address",
          "name": "",
          "type": "address"
        },
        {
          "internalType": "address",
          "name": "",
          "type": "address"
        }
      ],
      "name": "isApprovedForAll",
      "outputs": [
        {
          "internalType": "bool",
          "name": "",
          "type": "bool"
        }
      ],
      "stateMutability": "view",
      "type": "function"
    },
    {
      "inputs": [
        {
          "internalType": "address",
          "name": "_tokenContract",
          "type": "address"
        },
        {
          "internalType": "uint16",
          "name": "_tokenId",
          "type": "uint16"
        },
        {
          "internalType": "uint8",
          "name": "_artworkId",
          "type": "uint8"
        },
        {
          "internalType": "uint8",
          "name": "_templateId",
          "type": "uint8"
        },
        {
          "internalType": "string",
          "name": "_message",
          "type": "string"
        },
        {
          "internalType": "address",
          "name": "_recipient",
          "type": "address"
        }
      ],
      "name": "mint",
      "outputs": [],
      "stateMutability": "nonpayable",
      "type": "function"
    },
    {
      "inputs": [],
      "name": "mintEnabled",
      "outputs": [
        {
          "internalType": "bool",
          "name": "",
          "type": "bool"
        }
      ],
      "stateMutability": "view",
      "type": "function"
    },
    {
      "inputs": [],
      "name": "name",
      "outputs": [
        {
          "internalType": "string",
          "name": "",
          "type": "string"
        }
      ],
      "stateMutability": "view",
      "type": "function"
    },
    {
      "inputs": [],
      "name": "numTemplates",
      "outputs": [
        {
          "internalType": "uint8",
          "name": "",
          "type": "uint8"
        }
      ],
      "stateMutability": "view",
      "type": "function"
    },
    {
      "inputs": [],
      "name": "owner",
      "outputs": [
        {
          "internalType": "address",
          "name": "",
          "type": "address"
        }
      ],
      "stateMutability": "view",
      "type": "function"
    },
    {
      "inputs": [
        {
          "internalType": "uint256",
          "name": "id",
          "type": "uint256"
        }
      ],
      "name": "ownerOf",
      "outputs": [
        {
          "internalType": "address",
          "name": "owner",
          "type": "address"
        }
      ],
      "stateMutability": "view",
      "type": "function"
    },
    {
      "inputs": [
        {
          "internalType": "address",
          "name": "",
          "type": "address"
        },
        {
          "internalType": "uint256",
          "name": "",
          "type": "uint256"
        }
      ],
      "name": "recipientCards",
      "outputs": [
        {
          "internalType": "uint24",
          "name": "",
          "type": "uint24"
        }
      ],
      "stateMutability": "view",
      "type": "function"
    },
    {
      "inputs": [
        {
          "internalType": "address",
          "name": "from",
          "type": "address"
        },
        {
          "internalType": "address",
          "name": "to",
          "type": "address"
        },
        {
          "internalType": "uint256",
          "name": "id",
          "type": "uint256"
        }
      ],
      "name": "safeTransferFrom",
      "outputs": [],
      "stateMutability": "nonpayable",
      "type": "function"
    },
    {
      "inputs": [
        {
          "internalType": "address",
          "name": "from",
          "type": "address"
        },
        {
          "internalType": "address",
          "name": "to",
          "type": "address"
        },
        {
          "internalType": "uint256",
          "name": "id",
          "type": "uint256"
        },
        {
          "internalType": "bytes",
          "name": "data",
          "type": "bytes"
        }
      ],
      "name": "safeTransferFrom",
      "outputs": [],
      "stateMutability": "nonpayable",
      "type": "function"
    },
    {
      "inputs": [
        {
          "internalType": "address",
          "name": "",
          "type": "address"
        },
        {
          "internalType": "uint256",
          "name": "",
          "type": "uint256"
        }
      ],
      "name": "senderCards",
      "outputs": [
        {
          "internalType": "uint24",
          "name": "",
          "type": "uint24"
        }
      ],
      "stateMutability": "view",
      "type": "function"
    },
    {
      "inputs": [
        {
          "internalType": "address",
          "name": "operator",
          "type": "address"
        },
        {
          "internalType": "bool",
          "name": "approved",
          "type": "bool"
        }
      ],
      "name": "setApprovalForAll",
      "outputs": [],
      "stateMutability": "nonpayable",
      "type": "function"
    },
    {
      "inputs": [
        {
          "internalType": "address",
          "name": "_address",
          "type": "address"
        }
      ],
      "name": "setArtworkAddress",
      "outputs": [],
      "stateMutability": "nonpayable",
      "type": "function"
    },
    {
      "inputs": [
        {
          "internalType": "string",
          "name": "_newBaseURI",
          "type": "string"
        }
      ],
      "name": "setBaseURI",
      "outputs": [],
      "stateMutability": "nonpayable",
      "type": "function"
    },
    {
      "inputs": [
        {
          "internalType": "bool",
          "name": "_newMintEnabled",
          "type": "bool"
        }
      ],
      "name": "setMintEnabled",
      "outputs": [],
      "stateMutability": "nonpayable",
      "type": "function"
    },
    {
      "inputs": [
        {
          "internalType": "uint8",
          "name": "_numTemplates",
          "type": "uint8"
        }
      ],
      "name": "setNumTemplates",
      "outputs": [],
      "stateMutability": "nonpayable",
      "type": "function"
    },
    {
      "inputs": [
        {
          "internalType": "address",
          "name": "_address",
          "type": "address"
        },
        {
          "internalType": "bool",
          "name": "supported",
          "type": "bool"
        }
      ],
      "name": "setSupportedTokenContract",
      "outputs": [],
      "stateMutability": "nonpayable",
      "type": "function"
    },
    {
      "inputs": [
        {
          "internalType": "uint24",
          "name": "cardId",
          "type": "uint24"
        },
        {
          "internalType": "string",
          "name": "_message",
          "type": "string"
        }
      ],
      "name": "strikeMessage",
      "outputs": [],
      "stateMutability": "nonpayable",
      "type": "function"
    },
    {
      "inputs": [
        {
          "internalType": "address",
          "name": "",
          "type": "address"
        }
      ],
      "name": "supportedTokenContracts",
      "outputs": [
        {
          "internalType": "bool",
          "name": "",
          "type": "bool"
        }
      ],
      "stateMutability": "view",
      "type": "function"
    },
    {
      "inputs": [
        {
          "internalType": "bytes4",
          "name": "interfaceId",
          "type": "bytes4"
        }
      ],
      "name": "supportsInterface",
      "outputs": [
        {
          "internalType": "bool",
          "name": "",
          "type": "bool"
        }
      ],
      "stateMutability": "view",
      "type": "function"
    },
    {
      "inputs": [],
      "name": "symbol",
      "outputs": [
        {
          "internalType": "string",
          "name": "",
          "type": "string"
        }
      ],
      "stateMutability": "view",
      "type": "function"
    },
    {
      "inputs": [
        {
          "internalType": "uint256",
          "name": "id",
          "type": "uint256"
        }
      ],
      "name": "tokenURI",
      "outputs": [
        {
          "internalType": "string",
          "name": "",
          "type": "string"
        }
      ],
      "stateMutability": "view",
      "type": "function"
    },
    {
      "inputs": [],
      "name": "totalSupply",
      "outputs": [
        {
          "internalType": "uint24",
          "name": "",
          "type": "uint24"
        }
      ],
      "stateMutability": "view",
      "type": "function"
    },
    {
      "inputs": [
        {
          "internalType": "address",
          "name": "from",
          "type": "address"
        },
        {
          "internalType": "address",
          "name": "to",
          "type": "address"
        },
        {
          "internalType": "uint256",
          "name": "id",
          "type": "uint256"
        }
      ],
      "name": "transferFrom",
      "outputs": [],
      "stateMutability": "nonpayable",
      "type": "function"
    },
    {
      "inputs": [
        {
          "internalType": "address",
          "name": "newOwner",
          "type": "address"
        }
      ],
      "name": "transferOwnership",
      "outputs": [],
      "stateMutability": "nonpayable",
      "type": "function"
    },
    {
      "inputs": [],
      "name": "withdraw",
      "outputs": [],
      "stateMutability": "nonpayable",
      "type": "function"
    }
  ],
  "bytecode": {
    "object": "0x608060405260016007553480156200001657600080fd5b506040516200282b3803806200282b833981016040819052620000399162000320565b806040518060400160405280600d81526020016c57697a7a6d617320436172647360981b8152506040518060400160405280600781526020016657495a5a4d415360c81b8152508160009081620000919190620004ca565b506001620000a08282620004ca565b5050600680546001600160a01b0319166001600160a01b0384169081179091556040519091506000907f8be0079c531659141344cd1fd0a4f28419497f9722a3daafe3b4186f6b6457e0908290a35060088054600160201b600160c01b0319166401000000006001600160a01b0388160217905560005b84518160ff16101562000189576001600c6000878460ff168151811062000142576200014262000596565b6020908102919091018101516001600160a01b03168252810191909152604001600020805460ff1916911515919091179055806200018081620005ac565b91505062000117565b506008805460ff851660ff1991821617909155600a80549091169055620001b082620001bb565b5050505050620005da565b6006546001600160a01b03163314620002095760405162461bcd60e51b815260206004820152600c60248201526b15539055551213d49256915160a21b604482015260640160405180910390fd5b6009620002178282620004ca565b5050565b80516001600160a01b03811681146200023357600080fd5b919050565b634e487b7160e01b600052604160045260246000fd5b604051601f8201601f191681016001600160401b038111828210171562000279576200027962000238565b604052919050565b805160ff811681146200023357600080fd5b600082601f830112620002a557600080fd5b81516001600160401b03811115620002c157620002c162000238565b6020620002d7601f8301601f191682016200024e565b8281528582848701011115620002ec57600080fd5b60005b838110156200030c578581018301518282018401528201620002ef565b506000928101909101919091529392505050565b600080600080600060a086880312156200033957600080fd5b62000344866200021b565b602087810151919650906001600160401b03808211156200036457600080fd5b818901915089601f8301126200037957600080fd5b8151818111156200038e576200038e62000238565b8060051b6200039f8582016200024e565b918252838101850191858101908d841115620003ba57600080fd5b948601945b83861015620003e357620003d3866200021b565b82529486019490860190620003bf565b9950620003f79250505060408a0162000281565b955060608901519250808311156200040e57600080fd5b50506200041e8882890162000293565b9250506200042f608087016200021b565b90509295509295909350565b600181811c908216806200045057607f821691505b6020821081036200047157634e487b7160e01b600052602260045260246000fd5b50919050565b601f821115620004c557600081815260208120601f850160051c81016020861015620004a05750805b601f850160051c820191505b81811015620004c157828155600101620004ac565b5050505b505050565b81516001600160401b03811115620004e657620004e662000238565b620004fe81620004f784546200043b565b8462000477565b602080601f8311600181146200053657600084156200051d5750858301515b600019600386901b1c1916600185901b178555620004c1565b600085815260208120601f198616915b82811015620005675788860151825594840194600190910190840162000546565b5085821015620005865787850151600019600388901b60f8161c191681555b5050505050600190811b01905550565b634e487b7160e01b600052603260045260246000fd5b600060ff821660ff8103620005d157634e487b7160e01b600052601160045260246000fd5b60010192915050565b61224180620005ea6000396000f3fe608060405234801561001057600080fd5b50600436106102065760003560e01c806370a082311161011a578063c87b56dd116100ad578063ec8e1e131161007c578063ec8e1e13146104c0578063f2fde38b146104d3578063f46a04eb146104e6578063fa6c9cb3146104f9578063fdc49a2e1461051457600080fd5b8063c87b56dd1461045f578063d123973014610472578063e38806df1461047f578063e985e9c51461049257600080fd5b806395d89b41116100e957806395d89b411461041e578063a22cb46514610426578063a4bc006614610439578063b88d4fde1461044c57600080fd5b806370a08231146103b75780637826c2c2146103d85780638da5cb5b146103f85780638f7dd48b1461040b57600080fd5b80632faceae21161019d57806342842e0e1161016c57806342842e0e1461036357806355f804b3146103765780635796f3aa146103895780636352211e1461039c5780636c0360eb146103af57600080fd5b80632faceae2146103095780633ccfd60b146103285780633ff2f62e1461033057806341c3b3481461034357600080fd5b8063116ad9b7116101d9578063116ad9b71461029e57806318160ddd146102b157806323b872dd146102d3578063283e9a95146102e657600080fd5b806301ffc9a71461020b57806306fdde0314610233578063081812fc14610248578063095ea7b314610289575b600080fd5b61021e61021936600461186c565b610527565b60405190151581526020015b60405180910390f35b61023b610579565b60405161022a91906118e0565b6102716102563660046118f3565b6004602052600090815260409020546001600160a01b031681565b6040516001600160a01b03909116815260200161022a565b61029c610297366004611921565b610607565b005b61029c6102ac366004611a03565b6106ee565b600854610100900462ffffff165b60405162ffffff909116815260200161022a565b61029c6102e1366004611a51565b610793565b61021e6102f4366004611a92565b600c6020526000908152604090205460ff1681565b6008546103169060ff1681565b60405160ff909116815260200161022a565b61029c61095a565b61029c61033e366004611ac0565b6109b3565b610356610351366004611a92565b6109f3565b60405161022a9190611adb565b61029c610371366004611a51565b610a89565b61029c610384366004611b24565b610b59565b61029c610397366004611b61565b610b93565b6102716103aa3660046118f3565b61100c565b61023b611063565b6103ca6103c5366004611a92565b611070565b60405190815260200161022a565b6103eb6103e6366004611bff565b6110d3565b60405161022a9190611c1a565b600654610271906001600160a01b031681565b61029c610419366004611cd4565b611296565b61023b6112eb565b61029c610434366004611cd4565b6112f8565b6102bf610447366004611921565b611364565b61029c61045a366004611d09565b6113ac565b61023b61046d3660046118f3565b611471565b600a5461021e9060ff1681565b61035661048d366004611a92565b6114a5565b61021e6104a0366004611da8565b600560209081526000928352604080842090915290825290205460ff1681565b61029c6104ce366004611a92565b611514565b61029c6104e1366004611a92565b61156c565b61029c6104f4366004611de1565b6115e2565b6008546102719064010000000090046001600160a01b031681565b6102bf610522366004611921565b61161f565b60006301ffc9a760e01b6001600160e01b03198316148061055857506380ac58cd60e01b6001600160e01b03198316145b806105735750635b5e139f60e01b6001600160e01b03198316145b92915050565b6000805461058690611dfc565b80601f01602080910402602001604051908101604052809291908181526020018280546105b290611dfc565b80156105ff5780601f106105d4576101008083540402835291602001916105ff565b820191906000526020600020905b8154815290600101906020018083116105e257829003601f168201915b505050505081565b6000818152600260205260409020546001600160a01b03163381148061065057506001600160a01b038116600090815260056020908152604080832033845290915290205460ff165b6106925760405162461bcd60e51b815260206004820152600e60248201526d1393d517d055551213d49256915160921b60448201526064015b60405180910390fd5b60008281526004602052604080822080546001600160a01b0319166001600160a01b0387811691821790925591518593918516917f8c5be1e5ebec7d5bd14f71427d1e84f3dd0314c0f7b2291e5b200ac8c7c3b92591a4505050565b6006546001600160a01b031633146107185760405162461bcd60e51b815260040161068990611e36565b60085462ffffff61010090910481169083161061076d5760405162461bcd60e51b815260206004820152601360248201527210d85c99081b9bdd081b5a5b9d1959081e595d606a1b6044820152606401610689565b62ffffff82166000908152600b6020526040902060010161078e8282611eaa565b505050565b6000818152600260205260409020546001600160a01b038481169116146107e95760405162461bcd60e51b815260206004820152600a60248201526957524f4e475f46524f4d60b01b6044820152606401610689565b6001600160a01b0382166108335760405162461bcd60e51b81526020600482015260116024820152701253959053125117d49150d25412515395607a1b6044820152606401610689565b336001600160a01b038416148061086d57506001600160a01b038316600090815260056020908152604080832033845290915290205460ff165b8061088e57506000818152600460205260409020546001600160a01b031633145b6108cb5760405162461bcd60e51b815260206004820152600e60248201526d1393d517d055551213d49256915160921b6044820152606401610689565b6001600160a01b0380841660008181526003602090815260408083208054600019019055938616808352848320805460010190558583526002825284832080546001600160a01b03199081168317909155600490925284832080549092169091559251849392917fddf252ad1be2c89b69c2b068fc378daa952ba7f163c4a11628f55a4df523b3ef91a4505050565b6006546001600160a01b031633146109845760405162461bcd60e51b815260040161068990611e36565b60405133904780156108fc02916000818181858888f193505050501580156109b0573d6000803e3d6000fd5b50565b6006546001600160a01b031633146109dd5760405162461bcd60e51b815260040161068990611e36565b6008805460ff191660ff92909216919091179055565b6001600160a01b0381166000908152600d6020908152604091829020805483518184028101840190945280845260609392830182828015610a7d57602002820191906000526020600020906000905b82829054906101000a900462ffffff1662ffffff1681526020019060030190602082600201049283019260010382029150808411610a425790505b50505050509050919050565b610a94838383610793565b6001600160a01b0382163b1580610b3d5750604051630a85bd0160e11b8082523360048301526001600160a01b03858116602484015260448301849052608060648401526000608484015290919084169063150b7a029060a4016020604051808303816000875af1158015610b0d573d6000803e3d6000fd5b505050506040513d601f19601f82011682018060405250810190610b319190611f6a565b6001600160e01b031916145b61078e5760405162461bcd60e51b815260040161068990611f87565b6006546001600160a01b03163314610b835760405162461bcd60e51b815260040161068990611e36565b6009610b8f8282611eaa565b5050565b600754600114610bd25760405162461bcd60e51b815260206004820152600a6024820152695245454e5452414e435960b01b6044820152606401610689565b6002600755600a5460ff16610bfa5760405163589ed34b60e01b815260040160405180910390fd5b60085460ff90811690841610610c235760405163ec55b8cd60e01b815260040160405180910390fd5b6001600160a01b0386166000908152600c602052604090205460ff161515600114610c615760405163c1ab6dc160e01b815260040160405180910390fd5b60408251101580610c73575060018251105b15610c9157604051638d0242c960e01b815260040160405180910390fd5b6040516331a9108f60e11b815261ffff8616600482015233906001600160a01b03881690636352211e90602401602060405180830381865afa158015610cdb573d6000803e3d6000fd5b505050506040513d601f19601f82011682018060405250810190610cff9190611fb1565b6001600160a01b031614610d265760405163130213c560e21b815260040160405180910390fd5b600854604051627eeac760e11b815233600482015260ff8616602482015260019164010000000090046001600160a01b03169062fdd58e90604401602060405180830381865afa158015610d7e573d6000803e3d6000fd5b505050506040513d601f19601f82011682018060405250810190610da29190611fce565b1015610dc157604051633627b5d160e21b815260040160405180910390fd5b600854610100900462ffffff16610dd8828261163b565b60088054600190610df290610100900462ffffff16611fe7565b825462ffffff91821661010093840a90810290830219909116179092556040805191820181528383168083526001600160a01b03808c16602080860191825261ffff808e1687870190815260ff808f1660608a019081528e821660808b0190815260a08b018f81523360c08d01528e891660e08d01526000998a52600b909652989097208951815496519351985199518316600160d01b0260ff60d01b199a909316600160c81b0260ff60c81b1999909516600160b81b029890981662ffffff60b81b19939097166301000000026001600160b81b031990961697909a16969096179390931792909216929092171792909216178355519091906001820190610efb9082611eaa565b5060c08201516002820180546001600160a01b03199081166001600160a01b039384161790915560e0909301516003928301805490941690821617909255336000908152600d60209081526040808320805460018181018355918552838520600a808304909101805492829006880261010090810a62ffffff818102199095168c861691820217909255988b168752600e86528487208054948501815587528587208285040180549290940690970290970a9081021990961695850295909517909455918152600b90915281902090517ffa231382ec64543b3edc3920536e301e87f3377744d147bd6340dc738b479af991610ff691612094565b60405180910390a1505060016007555050505050565b6000818152600260205260409020546001600160a01b03168061105e5760405162461bcd60e51b815260206004820152600a6024820152691393d517d3525395115160b21b6044820152606401610689565b919050565b6009805461058690611dfc565b60006001600160a01b0382166110b75760405162461bcd60e51b815260206004820152600c60248201526b5a45524f5f4144445245535360a01b6044820152606401610689565b506001600160a01b031660009081526003602052604090205490565b604080516101008101825260008082526020820181905291810182905260608082018390526080820183905260a082015260c0810182905260e081019190915260085462ffffff80841661010090920416111561125c5762ffffff8083166000908152600b6020908152604091829020825161010081018452815494851681526001600160a01b0363010000008604169281019290925261ffff600160b81b8504169282019290925260ff600160c81b840481166060830152600160d01b909304909216608083015260018101805460a0840191906111b190611dfc565b80601f01602080910402602001604051908101604052809291908181526020018280546111dd90611dfc565b801561122a5780601f106111ff5761010080835404028352916020019161122a565b820191906000526020600020905b81548152906001019060200180831161120d57829003601f168201915b505050918352505060028201546001600160a01b03908116602083015260039092015490911660409091015292915050565b60405162461bcd60e51b815260206004820152600f60248201526e10d0549117d393d517d35253951151608a1b6044820152606401610689565b6006546001600160a01b031633146112c05760405162461bcd60e51b815260040161068990611e36565b6001600160a01b03919091166000908152600c60205260409020805460ff1916911515919091179055565b6001805461058690611dfc565b3360008181526005602090815260408083206001600160a01b03871680855290835292819020805460ff191686151590811790915590519081529192917f17307eab39ab6107e8899845ad3d59bd9653f200f220920489ca2b5937696c31910160405180910390a35050565b600e602052816000526040600020818154811061138057600080fd5b90600052602060002090600a9182820401919006600302915091509054906101000a900462ffffff1681565b6113b7858585610793565b6001600160a01b0384163b158061144e5750604051630a85bd0160e11b808252906001600160a01b0386169063150b7a02906113ff9033908a90899089908990600401612130565b6020604051808303816000875af115801561141e573d6000803e3d6000fd5b505050506040513d601f19601f820116820180604052508101906114429190611f6a565b6001600160e01b031916145b61146a5760405162461bcd60e51b815260040161068990611f87565b5050505050565b6060600961147e83611707565b60405160200161148f929190612184565b6040516020818303038152906040529050919050565b6001600160a01b0381166000908152600e6020908152604091829020805483518184028101840190945280845260609392830182828015610a7d576000918252602091829020805462ffffff168452908202830192909160039101808411610a42575094979650505050505050565b6006546001600160a01b0316331461153e5760405162461bcd60e51b815260040161068990611e36565b600880546001600160a01b0390921664010000000002640100000000600160c01b0319909216919091179055565b6006546001600160a01b031633146115965760405162461bcd60e51b815260040161068990611e36565b600680546001600160a01b0319166001600160a01b03831690811790915560405133907f8be0079c531659141344cd1fd0a4f28419497f9722a3daafe3b4186f6b6457e090600090a350565b6006546001600160a01b0316331461160c5760405162461bcd60e51b815260040161068990611e36565b600a805460ff1916911515919091179055565b600d602052816000526040600020818154811061138057600080fd5b611645828261174b565b6001600160a01b0382163b15806116eb5750604051630a85bd0160e11b80825233600483015260006024830181905260448301849052608060648401526084830152906001600160a01b0384169063150b7a029060a4016020604051808303816000875af11580156116bb573d6000803e3d6000fd5b505050506040513d601f19601f820116820180604052508101906116df9190611f6a565b6001600160e01b031916145b610b8f5760405162461bcd60e51b815260040161068990611f87565b606060a06040510180604052602081039150506000815280825b600183039250600a81066030018353600a9004806117215750819003601f19909101908152919050565b6001600160a01b0382166117955760405162461bcd60e51b81526020600482015260116024820152701253959053125117d49150d25412515395607a1b6044820152606401610689565b6000818152600260205260409020546001600160a01b0316156117eb5760405162461bcd60e51b815260206004820152600e60248201526d1053149150511657d3525395115160921b6044820152606401610689565b6001600160a01b038216600081815260036020908152604080832080546001019055848352600290915280822080546001600160a01b0319168417905551839291907fddf252ad1be2c89b69c2b068fc378daa952ba7f163c4a11628f55a4df523b3ef908290a45050565b6001600160e01b0319811681146109b057600080fd5b60006020828403121561187e57600080fd5b813561188981611856565b9392505050565b60005b838110156118ab578181015183820152602001611893565b50506000910152565b600081518084526118cc816020860160208601611890565b601f01601f19169290920160200192915050565b60208152600061188960208301846118b4565b60006020828403121561190557600080fd5b5035919050565b6001600160a01b03811681146109b057600080fd5b6000806040838503121561193457600080fd5b823561193f8161190c565b946020939093013593505050565b803562ffffff8116811461105e57600080fd5b634e487b7160e01b600052604160045260246000fd5b600082601f83011261198757600080fd5b813567ffffffffffffffff808211156119a2576119a2611960565b604051601f8301601f19908116603f011681019082821181831017156119ca576119ca611960565b816040528381528660208588010111156119e357600080fd5b836020870160208301376000602085830101528094505050505092915050565b60008060408385031215611a1657600080fd5b611a1f8361194d565b9150602083013567ffffffffffffffff811115611a3b57600080fd5b611a4785828601611976565b9150509250929050565b600080600060608486031215611a6657600080fd5b8335611a718161190c565b92506020840135611a818161190c565b929592945050506040919091013590565b600060208284031215611aa457600080fd5b81356118898161190c565b803560ff8116811461105e57600080fd5b600060208284031215611ad257600080fd5b61188982611aaf565b6020808252825182820181905260009190848201906040850190845b81811015611b1857835162ffffff1683529284019291840191600101611af7565b50909695505050505050565b600060208284031215611b3657600080fd5b813567ffffffffffffffff811115611b4d57600080fd5b611b5984828501611976565b949350505050565b60008060008060008060c08789031215611b7a57600080fd5b8635611b858161190c565b9550602087013561ffff81168114611b9c57600080fd5b9450611baa60408801611aaf565b9350611bb860608801611aaf565b9250608087013567ffffffffffffffff811115611bd457600080fd5b611be089828a01611976565b92505060a0870135611bf18161190c565b809150509295509295509295565b600060208284031215611c1157600080fd5b6118898261194d565b6020808252825162ffffff16828201528201516001600160a01b031660408083019190915282015161ffff8116606083015260009050606083015160ff8116608084015250608083015160ff811660a08401525060a08301516101008060c0850152611c8a6101208501836118b4565b915060c0850151611ca660e08601826001600160a01b03169052565b5060e08501516001600160a01b038116858301525090949350505050565b8035801515811461105e57600080fd5b60008060408385031215611ce757600080fd5b8235611cf28161190c565b9150611d0060208401611cc4565b90509250929050565b600080600080600060808688031215611d2157600080fd5b8535611d2c8161190c565b94506020860135611d3c8161190c565b935060408601359250606086013567ffffffffffffffff80821115611d6057600080fd5b818801915088601f830112611d7457600080fd5b813581811115611d8357600080fd5b896020828501011115611d9557600080fd5b9699959850939650602001949392505050565b60008060408385031215611dbb57600080fd5b8235611dc68161190c565b91506020830135611dd68161190c565b809150509250929050565b600060208284031215611df357600080fd5b61188982611cc4565b600181811c90821680611e1057607f821691505b602082108103611e3057634e487b7160e01b600052602260045260246000fd5b50919050565b6020808252600c908201526b15539055551213d49256915160a21b604082015260600190565b601f82111561078e57600081815260208120601f850160051c81016020861015611e835750805b601f850160051c820191505b81811015611ea257828155600101611e8f565b505050505050565b815167ffffffffffffffff811115611ec457611ec4611960565b611ed881611ed28454611dfc565b84611e5c565b602080601f831160018114611f0d5760008415611ef55750858301515b600019600386901b1c1916600185901b178555611ea2565b600085815260208120601f198616915b82811015611f3c57888601518255948401946001909101908401611f1d565b5085821015611f5a5787850151600019600388901b60f8161c191681555b5050505050600190811b01905550565b600060208284031215611f7c57600080fd5b815161188981611856565b60208082526010908201526f155394d0519157d49150d2541251539560821b604082015260600190565b600060208284031215611fc357600080fd5b81516118898161190c565b600060208284031215611fe057600080fd5b5051919050565b600062ffffff80831681810361200d57634e487b7160e01b600052601160045260246000fd5b6001019392505050565b6000815461202481611dfc565b808552602060018381168015612041576001811461205b57612089565b60ff1985168884015283151560051b880183019550612089565b866000528260002060005b858110156120815781548a8201860152908301908401612066565b890184019650505b505050505092915050565b60208152600082546120b26020840162ffffff831662ffffff169052565b6001600160a01b03601882901c16604084015260b881901c61ffff16606084015260c881901c60ff16608084015260d081901c60ff1660a0840152506101008060c0840152612108610120840160018601612017565b60028501546001600160a01b0390811660e08601526003909501549094169201919091525090565b6001600160a01b038681168252851660208201526040810184905260806060820181905281018290526000828460a0840137600060a0848401015260a0601f19601f85011683010190509695505050505050565b600080845461219281611dfc565b600182811680156121aa57600181146121bf576121ee565b60ff19841687528215158302870194506121ee565b8860005260208060002060005b858110156121e55781548a8201529084019082016121cc565b50505082870194505b505050508351612202818360208801611890565b0194935050505056fea2646970667358221220a61e5a98a50e4cab1b1ed0d59f375048e23e1ba75af72ca3a12d5f0ddd9f2ff964736f6c63430008100033",
    "linkReferences": {}
  },
  "methodIdentifiers": {
    "approve(address,uint256)": "095ea7b3",
    "artworkAddress()": "fa6c9cb3",
    "balanceOf(address)": "70a08231",
    "baseURI()": "6c0360eb",
    "getApproved(uint256)": "081812fc",
    "getCard(uint24)": "7826c2c2",
    "getRecipientCardIds(address)": "e38806df",
    "getSenderCardIds(address)": "41c3b348",
    "isApprovedForAll(address,address)": "e985e9c5",
    "mint(address,uint16,uint8,uint8,string,address)": "5796f3aa",
    "mintEnabled()": "d1239730",
    "name()": "06fdde03",
    "numTemplates()": "2faceae2",
    "owner()": "8da5cb5b",
    "ownerOf(uint256)": "6352211e",
    "recipientCards(address,uint256)": "a4bc0066",
    "safeTransferFrom(address,address,uint256)": "42842e0e",
    "safeTransferFrom(address,address,uint256,bytes)": "b88d4fde",
    "senderCards(address,uint256)": "fdc49a2e",
    "setApprovalForAll(address,bool)": "a22cb465",
    "setArtworkAddress(address)": "ec8e1e13",
    "setBaseURI(string)": "55f804b3",
    "setMintEnabled(bool)": "f46a04eb",
    "setNumTemplates(uint8)": "3ff2f62e",
    "setSupportedTokenContract(address,bool)": "8f7dd48b",
    "strikeMessage(uint24,string)": "116ad9b7",
    "supportedTokenContracts(address)": "283e9a95",
    "supportsInterface(bytes4)": "01ffc9a7",
    "symbol()": "95d89b41",
    "tokenURI(uint256)": "c87b56dd",
    "totalSupply()": "18160ddd",
    "transferFrom(address,address,uint256)": "23b872dd",
    "transferOwnership(address)": "f2fde38b",
    "withdraw()": "3ccfd60b"
  },
  "id": 23
}