{
  "abi": [
    {
      "inputs": [
        {
          "internalType": "address",
          "name": "_artworkAddress",
          "type": "address"
        },
        {
          "internalType": "uint256",
          "name": "_numArtworkTypes",
          "type": "uint256"
        },
        {
          "internalType": "address",
          "name": "_owner",
          "type": "address"
        }
      ],
      "stateMutability": "nonpayable",
      "type": "constructor"
    },
    {
      "anonymous": false,
      "inputs": [
        {
          "indexed": true,
          "internalType": "address",
          "name": "user",
          "type": "address"
        },
        {
          "indexed": true,
          "internalType": "address",
          "name": "newOwner",
          "type": "address"
        }
      ],
      "name": "OwnershipTransferred",
      "type": "event"
    },
    {
      "anonymous": false,
      "inputs": [
        {
          "indexed": false,
          "internalType": "address",
          "name": "claimer",
          "type": "address"
        },
        {
          "indexed": false,
          "internalType": "uint256",
          "name": "artworkType",
          "type": "uint256"
        }
      ],
      "name": "WizzWTFClaimed",
      "type": "event"
    },
    {
      "anonymous": false,
      "inputs": [
        {
          "indexed": false,
          "internalType": "address",
          "name": "minter",
          "type": "address"
        },
        {
          "indexed": false,
          "internalType": "uint256",
          "name": "artworkType",
          "type": "uint256"
        }
      ],
      "name": "WizzWTFMinted",
      "type": "event"
    },
    {
      "inputs": [
        {
          "internalType": "address",
          "name": "claimer",
          "type": "address"
        }
      ],
      "name": "canClaim",
      "outputs": [
        {
          "internalType": "bool",
          "name": "",
          "type": "bool"
        }
      ],
      "stateMutability": "view",
      "type": "function"
    },
    {
      "inputs": [
        {
          "internalType": "uint256",
          "name": "artworkType",
          "type": "uint256"
        }
      ],
      "name": "claim",
      "outputs": [],
      "stateMutability": "nonpayable",
      "type": "function"
    },
    {
      "inputs": [],
      "name": "freeMintsPerAddress",
      "outputs": [
        {
          "internalType": "uint256",
          "name": "",
          "type": "uint256"
        }
      ],
      "stateMutability": "view",
      "type": "function"
    },
    {
      "inputs": [
        {
          "internalType": "uint256",
          "name": "artworkType",
          "type": "uint256"
        }
      ],
      "name": "mint",
      "outputs": [],
      "stateMutability": "payable",
      "type": "function"
    },
    {
      "inputs": [],
      "name": "mintEnabled",
      "outputs": [
        {
          "internalType": "bool",
          "name": "",
          "type": "bool"
        }
      ],
      "stateMutability": "view",
      "type": "function"
    },
    {
      "inputs": [],
      "name": "mintPrice",
      "outputs": [
        {
          "internalType": "uint256",
          "name": "",
          "type": "uint256"
        }
      ],
      "stateMutability": "view",
      "type": "function"
    },
    {
      "inputs": [
        {
          "internalType": "address",
          "name": "",
          "type": "address"
        }
      ],
      "name": "minted",
      "outputs": [
        {
          "internalType": "uint256",
          "name": "",
          "type": "uint256"
        }
      ],
      "stateMutability": "view",
      "type": "function"
    },
    {
      "inputs": [],
      "name": "numArtworkTypes",
      "outputs": [
        {
          "internalType": "uint256",
          "name": "",
          "type": "uint256"
        }
      ],
      "stateMutability": "view",
      "type": "function"
    },
    {
      "inputs": [],
      "name": "owner",
      "outputs": [
        {
          "internalType": "address",
          "name": "",
          "type": "address"
        }
      ],
      "stateMutability": "view",
      "type": "function"
    },
    {
      "inputs": [
        {
          "internalType": "uint256",
          "name": "_numMints",
          "type": "uint256"
        }
      ],
      "name": "setFreeMintsPerAddress",
      "outputs": [],
      "stateMutability": "nonpayable",
      "type": "function"
    },
    {
      "inputs": [
        {
          "internalType": "uint256",
          "name": "_tokenId",
          "type": "uint256"
        },
        {
          "internalType": "bool",
          "name": "freeze",
          "type": "bool"
        }
      ],
      "name": "setFreezeToken",
      "outputs": [],
      "stateMutability": "nonpayable",
      "type": "function"
    },
    {
      "inputs": [
        {
          "internalType": "bool",
          "name": "_newMintEnabled",
          "type": "bool"
        }
      ],
      "name": "setMintEnabled",
      "outputs": [],
      "stateMutability": "nonpayable",
      "type": "function"
    },
    {
      "inputs": [
        {
          "internalType": "uint256",
          "name": "_newMintPrice",
          "type": "uint256"
        }
      ],
      "name": "setMintPrice",
      "outputs": [],
      "stateMutability": "nonpayable",
      "type": "function"
    },
    {
      "inputs": [
        {
          "internalType": "uint256",
          "name": "_artworkTypeMax",
          "type": "uint256"
        }
      ],
      "name": "setNumArtworkTypes",
      "outputs": [],
      "stateMutability": "nonpayable",
      "type": "function"
    },
    {
      "inputs": [
        {
          "internalType": "uint256",
          "name": "",
          "type": "uint256"
        }
      ],
      "name": "tokenFrozen",
      "outputs": [
        {
          "internalType": "bool",
          "name": "",
          "type": "bool"
        }
      ],
      "stateMutability": "view",
      "type": "function"
    },
    {
      "inputs": [
        {
          "internalType": "address",
          "name": "newOwner",
          "type": "address"
        }
      ],
      "name": "transferOwnership",
      "outputs": [],
      "stateMutability": "nonpayable",
      "type": "function"
    },
    {
      "inputs": [],
      "name": "withdraw",
      "outputs": [],
      "stateMutability": "nonpayable",
      "type": "function"
    },
    {
      "inputs": [],
      "name": "wizzWTFAddress",
      "outputs": [
        {
          "internalType": "address",
          "name": "",
          "type": "address"
        }
      ],
      "stateMutability": "view",
      "type": "function"
    }
  ],
  "bytecode": {
    "object": "0x608060405260018080556004805460ff19169055662386f26fc1000060055560065534801561002d57600080fd5b50604051610c5b380380610c5b83398101604081905261004c916100db565b600080546001600160a01b0319166001600160a01b03831690811782556040518392907f8be0079c531659141344cd1fd0a4f28419497f9722a3daafe3b4186f6b6457e0908290a35050600280546001600160a01b0319166001600160a01b039390931692909217909155600355610117565b80516001600160a01b03811681146100d657600080fd5b919050565b6000806000606084860312156100f057600080fd5b6100f9846100bf565b92506020840151915061010e604085016100bf565b90509250925092565b610b35806101266000396000f3fe6080604052600436106101095760003560e01c80636817c76c11610095578063bf3506c111610064578063bf3506c1146102d2578063d12397301461030e578063f2fde38b14610328578063f46a04eb14610348578063f4a0a5281461036857600080fd5b80636817c76c146102735780638da5cb5b146102895780639d27861b146102a9578063a0712d68146102bf57600080fd5b8063513f99e7116100dc578063513f99e7146101bd5780635420ebbc146101fd5780635972bab11461021d5780635fe8b91c1461023d57806361b5218e1461025d57600080fd5b80631d9d42c51461010e5780631e7269c51461014b578063379607f5146101865780633ccfd60b146101a8575b600080fd5b34801561011a57600080fd5b5060025461012e906001600160a01b031681565b6040516001600160a01b0390911681526020015b60405180910390f35b34801561015757600080fd5b50610178610166366004610a0d565b60076020526000908152604090205481565b604051908152602001610142565b34801561019257600080fd5b506101a66101a1366004610a3d565b610388565b005b3480156101b457600080fd5b506101a66105e8565b3480156101c957600080fd5b506101ed6101d8366004610a3d565b60086020526000908152604090205460ff1681565b6040519015158152602001610142565b34801561020957600080fd5b506101a6610218366004610a6b565b610641565b34801561022957600080fd5b506101a6610238366004610a3d565b61068b565b34801561024957600080fd5b506101a6610258366004610a3d565b6106ba565b34801561026957600080fd5b5061017860065481565b34801561027f57600080fd5b5061017860055481565b34801561029557600080fd5b5060005461012e906001600160a01b031681565b3480156102b557600080fd5b5061017860035481565b6101a66102cd366004610a3d565b6106e9565b3480156102de57600080fd5b506101ed6102ed366004610a0d565b6006546001600160a01b039091166000908152600760205260409020541090565b34801561031a57600080fd5b506004546101ed9060ff1681565b34801561033457600080fd5b506101a6610343366004610a0d565b61092c565b34801561035457600080fd5b506101a6610363366004610a97565b6109a1565b34801561037457600080fd5b506101a6610383366004610a3d565b6109de565b6001546001146103cc5760405162461bcd60e51b815260206004820152600a6024820152695245454e5452414e435960b01b60448201526064015b60405180910390fd5b600260015560045460ff166104115760405162461bcd60e51b815260206004820152600b60248201526a1352539517d0d313d4d15160aa1b60448201526064016103c3565b60008181526008602052604090205460ff161561045f5760405162461bcd60e51b815260206004820152600c60248201526b2a27a5a2a72fa32927ad22a760a11b60448201526064016103c3565b60065433600090815260076020526040902054106104b25760405162461bcd60e51b815260206004820152601060248201526f1194915157d0d310525354d7d554d15160821b60448201526064016103c3565b6002546003546001600160a01b0390911690821061050b5760405162461bcd60e51b8152602060048201526016602482015275494e434f52524543545f415254574f524b5f5459504560501b60448201526064016103c3565b60405163731133e960e01b8152336004820152602481018390526001604482015260806064820152600060848201526001600160a01b0382169063731133e99060a401600060405180830381600087803b15801561056857600080fd5b505af115801561057c573d6000803e3d6000fd5b50503360009081526007602052604081208054600194509092506105a1908490610ab2565b909155505060408051338152602081018490527fddf7598f1b0ff8248352035d9f8d2b4e5386b9a6e632286566656b4012777c9d91015b60405180910390a1505060018055565b6000546001600160a01b031633146106125760405162461bcd60e51b81526004016103c390610ad9565b60405133904780156108fc02916000818181858888f1935050505015801561063e573d6000803e3d6000fd5b50565b6000546001600160a01b0316331461066b5760405162461bcd60e51b81526004016103c390610ad9565b600091825260086020526040909120805460ff1916911515919091179055565b6000546001600160a01b031633146106b55760405162461bcd60e51b81526004016103c390610ad9565b600355565b6000546001600160a01b031633146106e45760405162461bcd60e51b81526004016103c390610ad9565b600655565b6001546001146107285760405162461bcd60e51b815260206004820152600a6024820152695245454e5452414e435960b01b60448201526064016103c3565b600260015560045460ff1661076d5760405162461bcd60e51b815260206004820152600b60248201526a1352539517d0d313d4d15160aa1b60448201526064016103c3565b60008181526008602052604090205460ff16156107bb5760405162461bcd60e51b815260206004820152600c60248201526b2a27a5a2a72fa32927ad22a760a11b60448201526064016103c3565b60055434146108025760405162461bcd60e51b8152602060048201526013602482015272494e434f52524543545f4554485f56414c554560681b60448201526064016103c3565b6002546003546001600160a01b0390911690821061085b5760405162461bcd60e51b8152602060048201526016602482015275494e434f52524543545f415254574f524b5f5459504560501b60448201526064016103c3565b60405163731133e960e01b8152336004820152602481018390526001604482015260806064820152600060848201526001600160a01b0382169063731133e99060a401600060405180830381600087803b1580156108b857600080fd5b505af11580156108cc573d6000803e3d6000fd5b50503360009081526007602052604081208054600194509092506108f1908490610ab2565b909155505060408051338152602081018490527f1b1868693676d15fbc04dafa1562c219cd4821d4710be2a6f4201983c9eab82e91016105d8565b6000546001600160a01b031633146109565760405162461bcd60e51b81526004016103c390610ad9565b600080546001600160a01b0319166001600160a01b0383169081178255604051909133917f8be0079c531659141344cd1fd0a4f28419497f9722a3daafe3b4186f6b6457e09190a350565b6000546001600160a01b031633146109cb5760405162461bcd60e51b81526004016103c390610ad9565b6004805460ff1916911515919091179055565b6000546001600160a01b03163314610a085760405162461bcd60e51b81526004016103c390610ad9565b600555565b600060208284031215610a1f57600080fd5b81356001600160a01b0381168114610a3657600080fd5b9392505050565b600060208284031215610a4f57600080fd5b5035919050565b80358015158114610a6657600080fd5b919050565b60008060408385031215610a7e57600080fd5b82359150610a8e60208401610a56565b90509250929050565b600060208284031215610aa957600080fd5b610a3682610a56565b80820180821115610ad357634e487b7160e01b600052601160045260246000fd5b92915050565b6020808252600c908201526b15539055551213d49256915160a21b60408201526060019056fea26469706673582212207272816cc601b47e717d24f537a5d8d8915a5849b58f9ea576433e49e386cf2a64736f6c63430008100033",
    "linkReferences": {}
  },
  "methodIdentifiers": {
    "canClaim(address)": "bf3506c1",
    "claim(uint256)": "379607f5",
    "freeMintsPerAddress()": "61b5218e",
    "mint(uint256)": "a0712d68",
    "mintEnabled()": "d1239730",
    "mintPrice()": "6817c76c",
    "minted(address)": "1e7269c5",
    "numArtworkTypes()": "9d27861b",
    "owner()": "8da5cb5b",
    "setFreeMintsPerAddress(uint256)": "5fe8b91c",
    "setFreezeToken(uint256,bool)": "5420ebbc",
    "setMintEnabled(bool)": "f46a04eb",
    "setMintPrice(uint256)": "f4a0a528",
    "setNumArtworkTypes(uint256)": "5972bab1",
    "tokenFrozen(uint256)": "513f99e7",
    "transferOwnership(address)": "f2fde38b",
    "withdraw()": "3ccfd60b",
    "wizzWTFAddress()": "1d9d42c5"
  },
  "id": 22
}