{
  "abi": [
    {
      "inputs": [
        {
          "internalType": "address",
          "name": "_artworkAddress",
          "type": "address"
        },
        {
          "internalType": "address[]",
          "name": "_tokenContracts",
          "type": "address[]"
        },
        {
          "internalType": "uint8",
          "name": "_numTemplates",
          "type": "uint8"
        },
        {
          "internalType": "string",
          "name": "_initialBaseURI",
          "type": "string"
        },
        {
          "internalType": "address",
          "name": "_owner",
          "type": "address"
        }
      ],
      "stateMutability": "nonpayable",
      "type": "constructor"
    },
    {
      "inputs": [],
      "name": "InvalidMessageLength",
      "type": "error"
    },
    {
      "inputs": [],
      "name": "InvalidTemplate",
      "type": "error"
    },
    {
      "inputs": [],
      "name": "InvalidToken",
      "type": "error"
    },
    {
      "inputs": [],
      "name": "MintClosed",
      "type": "error"
    },
    {
      "inputs": [],
      "name": "NoCover",
      "type": "error"
    },
    {
      "inputs": [],
      "name": "NotOwnerOfToken",
      "type": "error"
    },
    {
      "anonymous": false,
      "inputs": [
        {
          "indexed": true,
          "internalType": "address",
          "name": "owner",
          "type": "address"
        },
        {
          "indexed": true,
          "internalType": "address",
          "name": "spender",
          "type": "address"
        },
        {
          "indexed": true,
          "internalType": "uint256",
          "name": "id",
          "type": "uint256"
        }
      ],
      "name": "Approval",
      "type": "event"
    },
    {
      "anonymous": false,
      "inputs": [
        {
          "indexed": true,
          "internalType": "address",
          "name": "owner",
          "type": "address"
        },
        {
          "indexed": true,
          "internalType": "address",
          "name": "operator",
          "type": "address"
        },
        {
          "indexed": false,
          "internalType": "bool",
          "name": "approved",
          "type": "bool"
        }
      ],
      "name": "ApprovalForAll",
      "type": "event"
    },
    {
      "anonymous": false,
      "inputs": [
        {
          "indexed": true,
          "internalType": "address",
          "name": "user",
          "type": "address"
        },
        {
          "indexed": true,
          "internalType": "address",
          "name": "newOwner",
          "type": "address"
        }
      ],
      "name": "OwnershipTransferred",
      "type": "event"
    },
    {
      "anonymous": false,
      "inputs": [
        {
          "indexed": true,
          "internalType": "address",
          "name": "from",
          "type": "address"
        },
        {
          "indexed": true,
          "internalType": "address",
          "name": "to",
          "type": "address"
        },
        {
          "indexed": true,
          "internalType": "uint256",
          "name": "id",
          "type": "uint256"
        }
      ],
      "name": "Transfer",
      "type": "event"
    },
    {
      "anonymous": false,
      "inputs": [
        {
          "components": [
            {
              "internalType": "uint24",
              "name": "card",
              "type": "uint24"
            },
            {
              "internalType": "address",
              "name": "tokenContract",
              "type": "address"
            },
            {
              "internalType": "uint16",
              "name": "token",
              "type": "uint16"
            },
            {
              "internalType": "uint8",
              "name": "artwork",
              "type": "uint8"
            },
            {
              "internalType": "uint8",
              "name": "template",
              "type": "uint8"
            },
            {
              "internalType": "string",
              "name": "message",
              "type": "string"
            },
            {
              "internalType": "address",
              "name": "sender",
              "type": "address"
            },
            {
              "internalType": "address",
              "name": "recipient",
              "type": "address"
            }
          ],
          "indexed": false,
          "internalType": "struct WizzmasCard.Card",
          "name": "data",
          "type": "tuple"
        }
      ],
      "name": "WizzmasCardMinted",
      "type": "event"
    },
    {
      "inputs": [
        {
          "internalType": "address",
          "name": "spender",
          "type": "address"
        },
        {
          "internalType": "uint256",
          "name": "id",
          "type": "uint256"
        }
      ],
      "name": "approve",
      "outputs": [],
      "stateMutability": "nonpayable",
      "type": "function"
    },
    {
      "inputs": [],
      "name": "artworkAddress",
      "outputs": [
        {
          "internalType": "address",
          "name": "",
          "type": "address"
        }
      ],
      "stateMutability": "view",
      "type": "function"
    },
    {
      "inputs": [
        {
          "internalType": "address",
          "name": "owner",
          "type": "address"
        }
      ],
      "name": "balanceOf",
      "outputs": [
        {
          "internalType": "uint256",
          "name": "",
          "type": "uint256"
        }
      ],
      "stateMutability": "view",
      "type": "function"
    },
    {
      "inputs": [],
      "name": "baseURI",
      "outputs": [
        {
          "internalType": "string",
          "name": "",
          "type": "string"
        }
      ],
      "stateMutability": "view",
      "type": "function"
    },
    {
      "inputs": [
        {
          "internalType": "uint256",
          "name": "",
          "type": "uint256"
        }
      ],
      "name": "getApproved",
      "outputs": [
        {
          "internalType": "address",
          "name": "",
          "type": "address"
        }
      ],
      "stateMutability": "view",
      "type": "function"
    },
    {
      "inputs": [
        {
          "internalType": "uint24",
          "name": "cardId",
          "type": "uint24"
        }
      ],
      "name": "getCard",
      "outputs": [
        {
          "components": [
            {
              "internalType": "uint24",
              "name": "card",
              "type": "uint24"
            },
            {
              "internalType": "address",
              "name": "tokenContract",
              "type": "address"
            },
            {
              "internalType": "uint16",
              "name": "token",
              "type": "uint16"
            },
            {
              "internalType": "uint8",
              "name": "artwork",
              "type": "uint8"
            },
            {
              "internalType": "uint8",
              "name": "template",
              "type": "uint8"
            },
            {
              "internalType": "string",
              "name": "message",
              "type": "string"
            },
            {
              "internalType": "address",
              "name": "sender",
              "type": "address"
            },
            {
              "internalType": "address",
              "name": "recipient",
              "type": "address"
            }
          ],
          "internalType": "struct WizzmasCard.Card",
          "name": "",
          "type": "tuple"
        }
      ],
      "stateMutability": "view",
      "type": "function"
    },
    {
      "inputs": [
        {
          "internalType": "address",
          "name": "recipient",
          "type": "address"
        }
      ],
      "name": "getRecipientCardIds",
      "outputs": [
        {
          "internalType": "uint24[]",
          "name": "",
          "type": "uint24[]"
        }
      ],
      "stateMutability": "view",
      "type": "function"
    },
    {
      "inputs": [
        {
          "internalType": "address",
          "name": "sender",
          "type": "address"
        }
      ],
      "name": "getSenderCardIds",
      "outputs": [
        {
          "internalType": "uint24[]",
          "name": "",
          "type": "uint24[]"
        }
      ],
      "stateMutability": "view",
      "type": "function"
    },
    {
      "inputs": [
        {
          "internalType": "address",
          "name": "",
          "type": "address"
        },
        {
          "internalType": "address",
          "name": "",
          "type": "address"
        }
      ],
      "name": "isApprovedForAll",
      "outputs": [
        {
          "internalType": "bool",
          "name": "",
          "type": "bool"
        }
      ],
      "stateMutability": "view",
      "type": "function"
    },
    {
      "inputs": [
        {
          "internalType": "address",
          "name": "_tokenContract",
          "type": "address"
        },
        {
          "internalType": "uint16",
          "name": "_tokenId",
          "type": "uint16"
        },
        {
          "internalType": "uint8",
          "name": "_artworkId",
          "type": "uint8"
        },
        {
          "internalType": "uint8",
          "name": "_templateId",
          "type": "uint8"
        },
        {
          "internalType": "string",
          "name": "_message",
          "type": "string"
        },
        {
          "internalType": "address",
          "name": "_recipient",
          "type": "address"
        }
      ],
      "name": "mint",
      "outputs": [],
      "stateMutability": "nonpayable",
      "type": "function"
    },
    {
      "inputs": [],
      "name": "mintEnabled",
      "outputs": [
        {
          "internalType": "bool",
          "name": "",
          "type": "bool"
        }
      ],
      "stateMutability": "view",
      "type": "function"
    },
    {
      "inputs": [],
      "name": "name",
      "outputs": [
        {
          "internalType": "string",
          "name": "",
          "type": "string"
        }
      ],
      "stateMutability": "view",
      "type": "function"
    },
    {
      "inputs": [],
      "name": "numTemplates",
      "outputs": [
        {
          "internalType": "uint8",
          "name": "",
          "type": "uint8"
        }
      ],
      "stateMutability": "view",
      "type": "function"
    },
    {
      "inputs": [],
      "name": "owner",
      "outputs": [
        {
          "internalType": "address",
          "name": "",
          "type": "address"
        }
      ],
      "stateMutability": "view",
      "type": "function"
    },
    {
      "inputs": [
        {
          "internalType": "uint256",
          "name": "id",
          "type": "uint256"
        }
      ],
      "name": "ownerOf",
      "outputs": [
        {
          "internalType": "address",
          "name": "owner",
          "type": "address"
        }
      ],
      "stateMutability": "view",
      "type": "function"
    },
    {
      "inputs": [
        {
          "internalType": "address",
          "name": "",
          "type": "address"
        },
        {
          "internalType": "uint256",
          "name": "",
          "type": "uint256"
        }
      ],
      "name": "recipientCards",
      "outputs": [
        {
          "internalType": "uint24",
          "name": "",
          "type": "uint24"
        }
      ],
      "stateMutability": "view",
      "type": "function"
    },
    {
      "inputs": [
        {
          "internalType": "address",
          "name": "from",
          "type": "address"
        },
        {
          "internalType": "address",
          "name": "to",
          "type": "address"
        },
        {
          "internalType": "uint256",
          "name": "id",
          "type": "uint256"
        }
      ],
      "name": "safeTransferFrom",
      "outputs": [],
      "stateMutability": "nonpayable",
      "type": "function"
    },
    {
      "inputs": [
        {
          "internalType": "address",
          "name": "from",
          "type": "address"
        },
        {
          "internalType": "address",
          "name": "to",
          "type": "address"
        },
        {
          "internalType": "uint256",
          "name": "id",
          "type": "uint256"
        },
        {
          "internalType": "bytes",
          "name": "data",
          "type": "bytes"
        }
      ],
      "name": "safeTransferFrom",
      "outputs": [],
      "stateMutability": "nonpayable",
      "type": "function"
    },
    {
      "inputs": [
        {
          "internalType": "address",
          "name": "",
          "type": "address"
        },
        {
          "internalType": "uint256",
          "name": "",
          "type": "uint256"
        }
      ],
      "name": "senderCards",
      "outputs": [
        {
          "internalType": "uint24",
          "name": "",
          "type": "uint24"
        }
      ],
      "stateMutability": "view",
      "type": "function"
    },
    {
      "inputs": [
        {
          "internalType": "address",
          "name": "operator",
          "type": "address"
        },
        {
          "internalType": "bool",
          "name": "approved",
          "type": "bool"
        }
      ],
      "name": "setApprovalForAll",
      "outputs": [],
      "stateMutability": "nonpayable",
      "type": "function"
    },
    {
      "inputs": [
        {
          "internalType": "address",
          "name": "_address",
          "type": "address"
        }
      ],
      "name": "setArtworkAddress",
      "outputs": [],
      "stateMutability": "nonpayable",
      "type": "function"
    },
    {
      "inputs": [
        {
          "internalType": "string",
          "name": "_newBaseURI",
          "type": "string"
        }
      ],
      "name": "setBaseURI",
      "outputs": [],
      "stateMutability": "nonpayable",
      "type": "function"
    },
    {
      "inputs": [
        {
          "internalType": "bool",
          "name": "_newMintEnabled",
          "type": "bool"
        }
      ],
      "name": "setMintEnabled",
      "outputs": [],
      "stateMutability": "nonpayable",
      "type": "function"
    },
    {
      "inputs": [
        {
          "internalType": "uint8",
          "name": "_numTemplates",
          "type": "uint8"
        }
      ],
      "name": "setNumTemplates",
      "outputs": [],
      "stateMutability": "nonpayable",
      "type": "function"
    },
    {
      "inputs": [
        {
          "internalType": "address",
          "name": "_address",
          "type": "address"
        },
        {
          "internalType": "bool",
          "name": "supported",
          "type": "bool"
        }
      ],
      "name": "setSupportedTokenContract",
      "outputs": [],
      "stateMutability": "nonpayable",
      "type": "function"
    },
    {
      "inputs": [
        {
          "internalType": "uint24",
          "name": "cardId",
          "type": "uint24"
        }
      ],
      "name": "strikeMessage",
      "outputs": [],
      "stateMutability": "nonpayable",
      "type": "function"
    },
    {
      "inputs": [
        {
          "internalType": "address",
          "name": "",
          "type": "address"
        }
      ],
      "name": "supportedTokenContracts",
      "outputs": [
        {
          "internalType": "bool",
          "name": "",
          "type": "bool"
        }
      ],
      "stateMutability": "view",
      "type": "function"
    },
    {
      "inputs": [
        {
          "internalType": "bytes4",
          "name": "interfaceId",
          "type": "bytes4"
        }
      ],
      "name": "supportsInterface",
      "outputs": [
        {
          "internalType": "bool",
          "name": "",
          "type": "bool"
        }
      ],
      "stateMutability": "view",
      "type": "function"
    },
    {
      "inputs": [],
      "name": "symbol",
      "outputs": [
        {
          "internalType": "string",
          "name": "",
          "type": "string"
        }
      ],
      "stateMutability": "view",
      "type": "function"
    },
    {
      "inputs": [
        {
          "internalType": "uint256",
          "name": "id",
          "type": "uint256"
        }
      ],
      "name": "tokenURI",
      "outputs": [
        {
          "internalType": "string",
          "name": "",
          "type": "string"
        }
      ],
      "stateMutability": "view",
      "type": "function"
    },
    {
      "inputs": [
        {
          "internalType": "address",
          "name": "from",
          "type": "address"
        },
        {
          "internalType": "address",
          "name": "to",
          "type": "address"
        },
        {
          "internalType": "uint256",
          "name": "id",
          "type": "uint256"
        }
      ],
      "name": "transferFrom",
      "outputs": [],
      "stateMutability": "nonpayable",
      "type": "function"
    },
    {
      "inputs": [
        {
          "internalType": "address",
          "name": "newOwner",
          "type": "address"
        }
      ],
      "name": "transferOwnership",
      "outputs": [],
      "stateMutability": "nonpayable",
      "type": "function"
    },
    {
      "inputs": [],
      "name": "withdraw",
      "outputs": [],
      "stateMutability": "nonpayable",
      "type": "function"
    }
  ],
  "bytecode": {
    "object": "0x608060405260016007553480156200001657600080fd5b50604051620027e3380380620027e383398101604081905262000039916200030c565b604080518082018252600b8082526a15da5e9e9b585cd0d85c9960aa1b6020808401829052845180860190955291845290830152829160006200007d8382620004b6565b5060016200008c8282620004b6565b5050600680546001600160a01b0319166001600160a01b0384169081179091556040519091506000907f8be0079c531659141344cd1fd0a4f28419497f9722a3daafe3b4186f6b6457e0908290a35060088054600160201b600160c01b0319166401000000006001600160a01b0388160217905560005b84518160ff16101562000175576001600c6000878460ff16815181106200012e576200012e62000582565b6020908102919091018101516001600160a01b03168252810191909152604001600020805460ff1916911515919091179055806200016c8162000598565b91505062000103565b506008805460ff851660ff1991821617909155600a805490911690556200019c82620001a7565b5050505050620005c6565b6006546001600160a01b03163314620001f55760405162461bcd60e51b815260206004820152600c60248201526b15539055551213d49256915160a21b604482015260640160405180910390fd5b6009620002038282620004b6565b5050565b80516001600160a01b03811681146200021f57600080fd5b919050565b634e487b7160e01b600052604160045260246000fd5b604051601f8201601f191681016001600160401b038111828210171562000265576200026562000224565b604052919050565b805160ff811681146200021f57600080fd5b600082601f8301126200029157600080fd5b81516001600160401b03811115620002ad57620002ad62000224565b6020620002c3601f8301601f191682016200023a565b8281528582848701011115620002d857600080fd5b60005b83811015620002f8578581018301518282018401528201620002db565b506000928101909101919091529392505050565b600080600080600060a086880312156200032557600080fd5b620003308662000207565b602087810151919650906001600160401b03808211156200035057600080fd5b818901915089601f8301126200036557600080fd5b8151818111156200037a576200037a62000224565b8060051b6200038b8582016200023a565b918252838101850191858101908d841115620003a657600080fd5b948601945b83861015620003cf57620003bf8662000207565b82529486019490860190620003ab565b9950620003e39250505060408a016200026d565b95506060890151925080831115620003fa57600080fd5b50506200040a888289016200027f565b9250506200041b6080870162000207565b90509295509295909350565b600181811c908216806200043c57607f821691505b6020821081036200045d57634e487b7160e01b600052602260045260246000fd5b50919050565b601f821115620004b157600081815260208120601f850160051c810160208610156200048c5750805b601f850160051c820191505b81811015620004ad5782815560010162000498565b5050505b505050565b81516001600160401b03811115620004d257620004d262000224565b620004ea81620004e3845462000427565b8462000463565b602080601f831160018114620005225760008415620005095750858301515b600019600386901b1c1916600185901b178555620004ad565b600085815260208120601f198616915b82811015620005535788860151825594840194600190910190840162000532565b5085821015620005725787850151600019600388901b60f8161c191681555b5050505050600190811b01905550565b634e487b7160e01b600052603260045260246000fd5b600060ff821660ff8103620005bd57634e487b7160e01b600052601160045260246000fd5b60010192915050565b61220d80620005d66000396000f3fe608060405234801561001057600080fd5b50600436106101fb5760003560e01c806370a082311161011a578063c87b56dd116100ad578063ec8e1e131161007c578063ec8e1e13146104a7578063f2fde38b146104ba578063f46a04eb146104cd578063fa6c9cb3146104e0578063fdc49a2e146104fb57600080fd5b8063c87b56dd14610446578063d123973014610459578063e38806df14610466578063e985e9c51461047957600080fd5b806395d89b41116100e957806395d89b41146103f1578063a22cb465146103f9578063a4bc00661461040c578063b88d4fde1461043357600080fd5b806370a082311461038a5780637826c2c2146103ab5780638da5cb5b146103cb5780638f7dd48b146103de57600080fd5b80633ff2f62e116101925780635796f3aa116101615780635796f3aa146103495780636352211e1461035c5780636511ec861461036f5780636c0360eb1461038257600080fd5b80633ff2f62e146102f057806341c3b3481461030357806342842e0e1461032357806355f804b31461033657600080fd5b806323b872dd116101ce57806323b872dd14610293578063283e9a95146102a65780632faceae2146102c95780633ccfd60b146102e857600080fd5b806301ffc9a71461020057806306fdde0314610228578063081812fc1461023d578063095ea7b31461027e575b600080fd5b61021361020e36600461186d565b61050e565b60405190151581526020015b60405180910390f35b610230610560565b60405161021f91906118e1565b61026661024b3660046118f4565b6004602052600090815260409020546001600160a01b031681565b6040516001600160a01b03909116815260200161021f565b61029161028c366004611922565b6105ee565b005b6102916102a136600461194e565b6106d5565b6102136102b436600461198f565b600c6020526000908152604090205460ff1681565b6008546102d69060ff1681565b60405160ff909116815260200161021f565b61029161089c565b6102916102fe3660046119bd565b6108f5565b61031661031136600461198f565b610935565b60405161021f91906119d8565b61029161033136600461194e565b6109cb565b610291610344366004611ac4565b610aa0565b610291610357366004611b01565b610ada565b61026661036a3660046118f4565b610f53565b61029161037d366004611b9f565b610faa565b610230611064565b61039d61039836600461198f565b611071565b60405190815260200161021f565b6103be6103b9366004611b9f565b6110d4565b60405161021f9190611bc4565b600654610266906001600160a01b031681565b6102916103ec366004611c7e565b611297565b6102306112ec565b610291610407366004611c7e565b6112f9565b61041f61041a366004611922565b611365565b60405162ffffff909116815260200161021f565b610291610441366004611cb3565b6113ad565b6102306104543660046118f4565b611472565b600a546102139060ff1681565b61031661047436600461198f565b6114a6565b610213610487366004611d52565b600560209081526000928352604080842090915290825290205460ff1681565b6102916104b536600461198f565b611515565b6102916104c836600461198f565b61156d565b6102916104db366004611d8b565b6115e3565b6008546102669064010000000090046001600160a01b031681565b61041f610509366004611922565b611620565b60006301ffc9a760e01b6001600160e01b03198316148061053f57506380ac58cd60e01b6001600160e01b03198316145b8061055a5750635b5e139f60e01b6001600160e01b03198316145b92915050565b6000805461056d90611da6565b80601f016020809104026020016040519081016040528092919081815260200182805461059990611da6565b80156105e65780601f106105bb576101008083540402835291602001916105e6565b820191906000526020600020905b8154815290600101906020018083116105c957829003601f168201915b505050505081565b6000818152600260205260409020546001600160a01b03163381148061063757506001600160a01b038116600090815260056020908152604080832033845290915290205460ff165b6106795760405162461bcd60e51b815260206004820152600e60248201526d1393d517d055551213d49256915160921b60448201526064015b60405180910390fd5b60008281526004602052604080822080546001600160a01b0319166001600160a01b0387811691821790925591518593918516917f8c5be1e5ebec7d5bd14f71427d1e84f3dd0314c0f7b2291e5b200ac8c7c3b92591a4505050565b6000818152600260205260409020546001600160a01b0384811691161461072b5760405162461bcd60e51b815260206004820152600a60248201526957524f4e475f46524f4d60b01b6044820152606401610670565b6001600160a01b0382166107755760405162461bcd60e51b81526020600482015260116024820152701253959053125117d49150d25412515395607a1b6044820152606401610670565b336001600160a01b03841614806107af57506001600160a01b038316600090815260056020908152604080832033845290915290205460ff165b806107d057506000818152600460205260409020546001600160a01b031633145b61080d5760405162461bcd60e51b815260206004820152600e60248201526d1393d517d055551213d49256915160921b6044820152606401610670565b6001600160a01b0380841660008181526003602090815260408083208054600019019055938616808352848320805460010190558583526002825284832080546001600160a01b03199081168317909155600490925284832080549092169091559251849392917fddf252ad1be2c89b69c2b068fc378daa952ba7f163c4a11628f55a4df523b3ef91a4505050565b6006546001600160a01b031633146108c65760405162461bcd60e51b815260040161067090611de0565b60405133904780156108fc02916000818181858888f193505050501580156108f2573d6000803e3d6000fd5b50565b6006546001600160a01b0316331461091f5760405162461bcd60e51b815260040161067090611de0565b6008805460ff191660ff92909216919091179055565b6001600160a01b0381166000908152600d60209081526040918290208054835181840281018401909452808452606093928301828280156109bf57602002820191906000526020600020906000905b82829054906101000a900462ffffff1662ffffff16815260200190600301906020826002010492830192600103820291508084116109845790505b50505050509050919050565b6109d68383836106d5565b6001600160a01b0382163b1580610a7f5750604051630a85bd0160e11b8082523360048301526001600160a01b03858116602484015260448301849052608060648401526000608484015290919084169063150b7a029060a4016020604051808303816000875af1158015610a4f573d6000803e3d6000fd5b505050506040513d601f19601f82011682018060405250810190610a739190611e06565b6001600160e01b031916145b610a9b5760405162461bcd60e51b815260040161067090611e23565b505050565b6006546001600160a01b03163314610aca5760405162461bcd60e51b815260040161067090611de0565b6009610ad68282611e9b565b5050565b600754600114610b195760405162461bcd60e51b815260206004820152600a6024820152695245454e5452414e435960b01b6044820152606401610670565b6002600755600a5460ff16610b415760405163589ed34b60e01b815260040160405180910390fd5b60085460ff90811690841610610b6a5760405163ec55b8cd60e01b815260040160405180910390fd5b6001600160a01b0386166000908152600c602052604090205460ff161515600114610ba85760405163c1ab6dc160e01b815260040160405180910390fd5b60408251101580610bba575060018251105b15610bd857604051638d0242c960e01b815260040160405180910390fd5b6040516331a9108f60e11b815261ffff8616600482015233906001600160a01b03881690636352211e90602401602060405180830381865afa158015610c22573d6000803e3d6000fd5b505050506040513d601f19601f82011682018060405250810190610c469190611f5b565b6001600160a01b031614610c6d5760405163130213c560e21b815260040160405180910390fd5b600854604051627eeac760e11b815233600482015260ff8616602482015260019164010000000090046001600160a01b03169062fdd58e90604401602060405180830381865afa158015610cc5573d6000803e3d6000fd5b505050506040513d601f19601f82011682018060405250810190610ce99190611f78565b1015610d0857604051633627b5d160e21b815260040160405180910390fd5b600854610100900462ffffff16610d1f828261163c565b60088054600190610d3990610100900462ffffff16611f91565b825462ffffff91821661010093840a90810290830219909116179092556040805191820181528383168083526001600160a01b03808c16602080860191825261ffff808e1687870190815260ff808f1660608a019081528e821660808b0190815260a08b018f81523360c08d01528e891660e08d01526000998a52600b909652989097208951815496519351985199518316600160d01b0260ff60d01b199a909316600160c81b0260ff60c81b1999909516600160b81b029890981662ffffff60b81b19939097166301000000026001600160b81b031990961697909a16969096179390931792909216929092171792909216178355519091906001820190610e429082611e9b565b5060c08201516002820180546001600160a01b03199081166001600160a01b039384161790915560e0909301516003928301805490941690821617909255336000908152600d60209081526040808320805460018181018355918552838520600a808304909101805492829006880261010090810a62ffffff818102199095168c861691820217909255988b168752600e86528487208054948501815587528587208285040180549290940690970290970a9081021990961695850295909517909455918152600b90915281902090517ffa231382ec64543b3edc3920536e301e87f3377744d147bd6340dc738b479af991610f3d9161203e565b60405180910390a1505060016007555050505050565b6000818152600260205260409020546001600160a01b031680610fa55760405162461bcd60e51b815260206004820152600a6024820152691393d517d3525395115160b21b6044820152606401610670565b919050565b6006546001600160a01b03163314610fd45760405162461bcd60e51b815260040161067090611de0565b60085462ffffff6101009091048116908216106110295760405162461bcd60e51b815260206004820152601360248201527210d85c99081b9bdd081b5a5b9d1959081e595d606a1b6044820152606401610670565b6040518060600160405280602281526020016121b66022913962ffffff82166000908152600b6020526040902060010190610ad69082611e9b565b6009805461056d90611da6565b60006001600160a01b0382166110b85760405162461bcd60e51b815260206004820152600c60248201526b5a45524f5f4144445245535360a01b6044820152606401610670565b506001600160a01b031660009081526003602052604090205490565b604080516101008101825260008082526020820181905291810182905260608082018390526080820183905260a082015260c0810182905260e081019190915260085462ffffff80841661010090920416111561125d5762ffffff8083166000908152600b6020908152604091829020825161010081018452815494851681526001600160a01b0363010000008604169281019290925261ffff600160b81b8504169282019290925260ff600160c81b840481166060830152600160d01b909304909216608083015260018101805460a0840191906111b290611da6565b80601f01602080910402602001604051908101604052809291908181526020018280546111de90611da6565b801561122b5780601f106112005761010080835404028352916020019161122b565b820191906000526020600020905b81548152906001019060200180831161120e57829003601f168201915b505050918352505060028201546001600160a01b03908116602083015260039092015490911660409091015292915050565b60405162461bcd60e51b815260206004820152600f60248201526e10d0549117d393d517d35253951151608a1b6044820152606401610670565b6006546001600160a01b031633146112c15760405162461bcd60e51b815260040161067090611de0565b6001600160a01b03919091166000908152600c60205260409020805460ff1916911515919091179055565b6001805461056d90611da6565b3360008181526005602090815260408083206001600160a01b03871680855290835292819020805460ff191686151590811790915590519081529192917f17307eab39ab6107e8899845ad3d59bd9653f200f220920489ca2b5937696c31910160405180910390a35050565b600e602052816000526040600020818154811061138157600080fd5b90600052602060002090600a9182820401919006600302915091509054906101000a900462ffffff1681565b6113b88585856106d5565b6001600160a01b0384163b158061144f5750604051630a85bd0160e11b808252906001600160a01b0386169063150b7a02906114009033908a908990899089906004016120da565b6020604051808303816000875af115801561141f573d6000803e3d6000fd5b505050506040513d601f19601f820116820180604052508101906114439190611e06565b6001600160e01b031916145b61146b5760405162461bcd60e51b815260040161067090611e23565b5050505050565b6060600961147f83611708565b60405160200161149092919061212e565b6040516020818303038152906040529050919050565b6001600160a01b0381166000908152600e60209081526040918290208054835181840281018401909452808452606093928301828280156109bf576000918252602091829020805462ffffff168452908202830192909160039101808411610984575094979650505050505050565b6006546001600160a01b0316331461153f5760405162461bcd60e51b815260040161067090611de0565b600880546001600160a01b0390921664010000000002640100000000600160c01b0319909216919091179055565b6006546001600160a01b031633146115975760405162461bcd60e51b815260040161067090611de0565b600680546001600160a01b0319166001600160a01b03831690811790915560405133907f8be0079c531659141344cd1fd0a4f28419497f9722a3daafe3b4186f6b6457e090600090a350565b6006546001600160a01b0316331461160d5760405162461bcd60e51b815260040161067090611de0565b600a805460ff1916911515919091179055565b600d602052816000526040600020818154811061138157600080fd5b611646828261174c565b6001600160a01b0382163b15806116ec5750604051630a85bd0160e11b80825233600483015260006024830181905260448301849052608060648401526084830152906001600160a01b0384169063150b7a029060a4016020604051808303816000875af11580156116bc573d6000803e3d6000fd5b505050506040513d601f19601f820116820180604052508101906116e09190611e06565b6001600160e01b031916145b610ad65760405162461bcd60e51b815260040161067090611e23565b606060a06040510180604052602081039150506000815280825b600183039250600a81066030018353600a9004806117225750819003601f19909101908152919050565b6001600160a01b0382166117965760405162461bcd60e51b81526020600482015260116024820152701253959053125117d49150d25412515395607a1b6044820152606401610670565b6000818152600260205260409020546001600160a01b0316156117ec5760405162461bcd60e51b815260206004820152600e60248201526d1053149150511657d3525395115160921b6044820152606401610670565b6001600160a01b038216600081815260036020908152604080832080546001019055848352600290915280822080546001600160a01b0319168417905551839291907fddf252ad1be2c89b69c2b068fc378daa952ba7f163c4a11628f55a4df523b3ef908290a45050565b6001600160e01b0319811681146108f257600080fd5b60006020828403121561187f57600080fd5b813561188a81611857565b9392505050565b60005b838110156118ac578181015183820152602001611894565b50506000910152565b600081518084526118cd816020860160208601611891565b601f01601f19169290920160200192915050565b60208152600061188a60208301846118b5565b60006020828403121561190657600080fd5b5035919050565b6001600160a01b03811681146108f257600080fd5b6000806040838503121561193557600080fd5b82356119408161190d565b946020939093013593505050565b60008060006060848603121561196357600080fd5b833561196e8161190d565b9250602084013561197e8161190d565b929592945050506040919091013590565b6000602082840312156119a157600080fd5b813561188a8161190d565b803560ff81168114610fa557600080fd5b6000602082840312156119cf57600080fd5b61188a826119ac565b6020808252825182820181905260009190848201906040850190845b81811015611a1557835162ffffff16835292840192918401916001016119f4565b50909695505050505050565b634e487b7160e01b600052604160045260246000fd5b600082601f830112611a4857600080fd5b813567ffffffffffffffff80821115611a6357611a63611a21565b604051601f8301601f19908116603f01168101908282118183101715611a8b57611a8b611a21565b81604052838152866020858801011115611aa457600080fd5b836020870160208301376000602085830101528094505050505092915050565b600060208284031215611ad657600080fd5b813567ffffffffffffffff811115611aed57600080fd5b611af984828501611a37565b949350505050565b60008060008060008060c08789031215611b1a57600080fd5b8635611b258161190d565b9550602087013561ffff81168114611b3c57600080fd5b9450611b4a604088016119ac565b9350611b58606088016119ac565b9250608087013567ffffffffffffffff811115611b7457600080fd5b611b8089828a01611a37565b92505060a0870135611b918161190d565b809150509295509295509295565b600060208284031215611bb157600080fd5b813562ffffff8116811461188a57600080fd5b6020808252825162ffffff16828201528201516001600160a01b031660408083019190915282015161ffff8116606083015260009050606083015160ff8116608084015250608083015160ff811660a08401525060a08301516101008060c0850152611c346101208501836118b5565b915060c0850151611c5060e08601826001600160a01b03169052565b5060e08501516001600160a01b038116858301525090949350505050565b80358015158114610fa557600080fd5b60008060408385031215611c9157600080fd5b8235611c9c8161190d565b9150611caa60208401611c6e565b90509250929050565b600080600080600060808688031215611ccb57600080fd5b8535611cd68161190d565b94506020860135611ce68161190d565b935060408601359250606086013567ffffffffffffffff80821115611d0a57600080fd5b818801915088601f830112611d1e57600080fd5b813581811115611d2d57600080fd5b896020828501011115611d3f57600080fd5b9699959850939650602001949392505050565b60008060408385031215611d6557600080fd5b8235611d708161190d565b91506020830135611d808161190d565b809150509250929050565b600060208284031215611d9d57600080fd5b61188a82611c6e565b600181811c90821680611dba57607f821691505b602082108103611dda57634e487b7160e01b600052602260045260246000fd5b50919050565b6020808252600c908201526b15539055551213d49256915160a21b604082015260600190565b600060208284031215611e1857600080fd5b815161188a81611857565b60208082526010908201526f155394d0519157d49150d2541251539560821b604082015260600190565b601f821115610a9b57600081815260208120601f850160051c81016020861015611e745750805b601f850160051c820191505b81811015611e9357828155600101611e80565b505050505050565b815167ffffffffffffffff811115611eb557611eb5611a21565b611ec981611ec38454611da6565b84611e4d565b602080601f831160018114611efe5760008415611ee65750858301515b600019600386901b1c1916600185901b178555611e93565b600085815260208120601f198616915b82811015611f2d57888601518255948401946001909101908401611f0e565b5085821015611f4b5787850151600019600388901b60f8161c191681555b5050505050600190811b01905550565b600060208284031215611f6d57600080fd5b815161188a8161190d565b600060208284031215611f8a57600080fd5b5051919050565b600062ffffff808316818103611fb757634e487b7160e01b600052601160045260246000fd5b6001019392505050565b60008154611fce81611da6565b808552602060018381168015611feb576001811461200557612033565b60ff1985168884015283151560051b880183019550612033565b866000528260002060005b8581101561202b5781548a8201860152908301908401612010565b890184019650505b505050505092915050565b602081526000825461205c6020840162ffffff831662ffffff169052565b6001600160a01b03601882901c16604084015260b881901c61ffff16606084015260c881901c60ff16608084015260d081901c60ff1660a0840152506101008060c08401526120b2610120840160018601611fc1565b60028501546001600160a01b0390811660e08601526003909501549094169201919091525090565b6001600160a01b038681168252851660208201526040810184905260806060820181905281018290526000828460a0840137600060a0848401015260a0601f19601f85011683010190509695505050505050565b600080845461213c81611da6565b60018281168015612154576001811461216957612198565b60ff1984168752821515830287019450612198565b8860005260208060002060005b8581101561218f5781548a820152908401908201612176565b50505082870194505b5050505083516121ac818360208801611891565b0194935050505056fe53656e646572206861732061206469727479206b6f626f6c64206d6f757468207844a2646970667358221220d4fa6058c6929f239ac80cfc6e3bef783c80e9d7c9cc42b1187c34cc2c4a9e3464736f6c63430008100033",
    "linkReferences": {}
  },
  "methodIdentifiers": {
    "approve(address,uint256)": "095ea7b3",
    "artworkAddress()": "fa6c9cb3",
    "balanceOf(address)": "70a08231",
    "baseURI()": "6c0360eb",
    "getApproved(uint256)": "081812fc",
    "getCard(uint24)": "7826c2c2",
    "getRecipientCardIds(address)": "e38806df",
    "getSenderCardIds(address)": "41c3b348",
    "isApprovedForAll(address,address)": "e985e9c5",
    "mint(address,uint16,uint8,uint8,string,address)": "5796f3aa",
    "mintEnabled()": "d1239730",
    "name()": "06fdde03",
    "numTemplates()": "2faceae2",
    "owner()": "8da5cb5b",
    "ownerOf(uint256)": "6352211e",
    "recipientCards(address,uint256)": "a4bc0066",
    "safeTransferFrom(address,address,uint256)": "42842e0e",
    "safeTransferFrom(address,address,uint256,bytes)": "b88d4fde",
    "senderCards(address,uint256)": "fdc49a2e",
    "setApprovalForAll(address,bool)": "a22cb465",
    "setArtworkAddress(address)": "ec8e1e13",
    "setBaseURI(string)": "55f804b3",
    "setMintEnabled(bool)": "f46a04eb",
    "setNumTemplates(uint8)": "3ff2f62e",
    "setSupportedTokenContract(address,bool)": "8f7dd48b",
    "strikeMessage(uint24)": "6511ec86",
    "supportedTokenContracts(address)": "283e9a95",
    "supportsInterface(bytes4)": "01ffc9a7",
    "symbol()": "95d89b41",
    "tokenURI(uint256)": "c87b56dd",
    "transferFrom(address,address,uint256)": "23b872dd",
    "transferOwnership(address)": "f2fde38b",
    "withdraw()": "3ccfd60b"
  },
  "id": 23
}