{
  "abi": [
    {
      "inputs": [
        {
          "internalType": "address",
          "name": "_owner",
          "type": "address"
        }
      ],
      "stateMutability": "nonpayable",
      "type": "constructor"
    },
    {
      "inputs": [],
      "name": "NotOwnerOrMinter",
      "type": "error"
    },
    {
      "anonymous": false,
      "inputs": [
        {
          "indexed": true,
          "internalType": "address",
          "name": "owner",
          "type": "address"
        },
        {
          "indexed": true,
          "internalType": "address",
          "name": "operator",
          "type": "address"
        },
        {
          "indexed": false,
          "internalType": "bool",
          "name": "approved",
          "type": "bool"
        }
      ],
      "name": "ApprovalForAll",
      "type": "event"
    },
    {
      "anonymous": false,
      "inputs": [
        {
          "indexed": true,
          "internalType": "address",
          "name": "user",
          "type": "address"
        },
        {
          "indexed": true,
          "internalType": "address",
          "name": "newOwner",
          "type": "address"
        }
      ],
      "name": "OwnershipTransferred",
      "type": "event"
    },
    {
      "anonymous": false,
      "inputs": [
        {
          "indexed": true,
          "internalType": "address",
          "name": "operator",
          "type": "address"
        },
        {
          "indexed": true,
          "internalType": "address",
          "name": "from",
          "type": "address"
        },
        {
          "indexed": true,
          "internalType": "address",
          "name": "to",
          "type": "address"
        },
        {
          "indexed": false,
          "internalType": "uint256[]",
          "name": "ids",
          "type": "uint256[]"
        },
        {
          "indexed": false,
          "internalType": "uint256[]",
          "name": "amounts",
          "type": "uint256[]"
        }
      ],
      "name": "TransferBatch",
      "type": "event"
    },
    {
      "anonymous": false,
      "inputs": [
        {
          "indexed": true,
          "internalType": "address",
          "name": "operator",
          "type": "address"
        },
        {
          "indexed": true,
          "internalType": "address",
          "name": "from",
          "type": "address"
        },
        {
          "indexed": true,
          "internalType": "address",
          "name": "to",
          "type": "address"
        },
        {
          "indexed": false,
          "internalType": "uint256",
          "name": "id",
          "type": "uint256"
        },
        {
          "indexed": false,
          "internalType": "uint256",
          "name": "amount",
          "type": "uint256"
        }
      ],
      "name": "TransferSingle",
      "type": "event"
    },
    {
      "anonymous": false,
      "inputs": [
        {
          "indexed": false,
          "internalType": "string",
          "name": "value",
          "type": "string"
        },
        {
          "indexed": true,
          "internalType": "uint256",
          "name": "id",
          "type": "uint256"
        }
      ],
      "name": "URI",
      "type": "event"
    },
    {
      "inputs": [
        {
          "internalType": "address",
          "name": "minter",
          "type": "address"
        }
      ],
      "name": "addMinter",
      "outputs": [],
      "stateMutability": "nonpayable",
      "type": "function"
    },
    {
      "inputs": [
        {
          "internalType": "address",
          "name": "",
          "type": "address"
        },
        {
          "internalType": "uint256",
          "name": "",
          "type": "uint256"
        }
      ],
      "name": "balanceOf",
      "outputs": [
        {
          "internalType": "uint256",
          "name": "",
          "type": "uint256"
        }
      ],
      "stateMutability": "view",
      "type": "function"
    },
    {
      "inputs": [
        {
          "internalType": "address[]",
          "name": "owners",
          "type": "address[]"
        },
        {
          "internalType": "uint256[]",
          "name": "ids",
          "type": "uint256[]"
        }
      ],
      "name": "balanceOfBatch",
      "outputs": [
        {
          "internalType": "uint256[]",
          "name": "balances",
          "type": "uint256[]"
        }
      ],
      "stateMutability": "view",
      "type": "function"
    },
    {
      "inputs": [
        {
          "internalType": "address",
          "name": "",
          "type": "address"
        },
        {
          "internalType": "address",
          "name": "",
          "type": "address"
        }
      ],
      "name": "isApprovedForAll",
      "outputs": [
        {
          "internalType": "bool",
          "name": "",
          "type": "bool"
        }
      ],
      "stateMutability": "view",
      "type": "function"
    },
    {
      "inputs": [
        {
          "internalType": "address",
          "name": "initialOwner",
          "type": "address"
        },
        {
          "internalType": "uint256",
          "name": "tokenId",
          "type": "uint256"
        },
        {
          "internalType": "uint256",
          "name": "amount",
          "type": "uint256"
        },
        {
          "internalType": "bytes",
          "name": "data",
          "type": "bytes"
        }
      ],
      "name": "mint",
      "outputs": [],
      "stateMutability": "nonpayable",
      "type": "function"
    },
    {
      "inputs": [
        {
          "internalType": "address",
          "name": "",
          "type": "address"
        }
      ],
      "name": "minters",
      "outputs": [
        {
          "internalType": "bool",
          "name": "",
          "type": "bool"
        }
      ],
      "stateMutability": "view",
      "type": "function"
    },
    {
      "inputs": [],
      "name": "name",
      "outputs": [
        {
          "internalType": "string",
          "name": "",
          "type": "string"
        }
      ],
      "stateMutability": "view",
      "type": "function"
    },
    {
      "inputs": [],
      "name": "owner",
      "outputs": [
        {
          "internalType": "address",
          "name": "",
          "type": "address"
        }
      ],
      "stateMutability": "view",
      "type": "function"
    },
    {
      "inputs": [
        {
          "internalType": "address",
          "name": "from",
          "type": "address"
        },
        {
          "internalType": "address",
          "name": "to",
          "type": "address"
        },
        {
          "internalType": "uint256[]",
          "name": "ids",
          "type": "uint256[]"
        },
        {
          "internalType": "uint256[]",
          "name": "amounts",
          "type": "uint256[]"
        },
        {
          "internalType": "bytes",
          "name": "data",
          "type": "bytes"
        }
      ],
      "name": "safeBatchTransferFrom",
      "outputs": [],
      "stateMutability": "nonpayable",
      "type": "function"
    },
    {
      "inputs": [
        {
          "internalType": "address",
          "name": "from",
          "type": "address"
        },
        {
          "internalType": "address",
          "name": "to",
          "type": "address"
        },
        {
          "internalType": "uint256",
          "name": "id",
          "type": "uint256"
        },
        {
          "internalType": "uint256",
          "name": "amount",
          "type": "uint256"
        },
        {
          "internalType": "bytes",
          "name": "data",
          "type": "bytes"
        }
      ],
      "name": "safeTransferFrom",
      "outputs": [],
      "stateMutability": "nonpayable",
      "type": "function"
    },
    {
      "inputs": [
        {
          "internalType": "address",
          "name": "operator",
          "type": "address"
        },
        {
          "internalType": "bool",
          "name": "approved",
          "type": "bool"
        }
      ],
      "name": "setApprovalForAll",
      "outputs": [],
      "stateMutability": "nonpayable",
      "type": "function"
    },
    {
      "inputs": [
        {
          "internalType": "uint256",
          "name": "tokenId",
          "type": "uint256"
        },
        {
          "internalType": "string",
          "name": "tokenUri",
          "type": "string"
        }
      ],
      "name": "setTokenURI",
      "outputs": [],
      "stateMutability": "nonpayable",
      "type": "function"
    },
    {
      "inputs": [
        {
          "internalType": "bytes4",
          "name": "interfaceId",
          "type": "bytes4"
        }
      ],
      "name": "supportsInterface",
      "outputs": [
        {
          "internalType": "bool",
          "name": "",
          "type": "bool"
        }
      ],
      "stateMutability": "view",
      "type": "function"
    },
    {
      "inputs": [],
      "name": "symbol",
      "outputs": [
        {
          "internalType": "string",
          "name": "",
          "type": "string"
        }
      ],
      "stateMutability": "view",
      "type": "function"
    },
    {
      "inputs": [
        {
          "internalType": "uint256",
          "name": "",
          "type": "uint256"
        }
      ],
      "name": "tokenSupply",
      "outputs": [
        {
          "internalType": "uint256",
          "name": "",
          "type": "uint256"
        }
      ],
      "stateMutability": "view",
      "type": "function"
    },
    {
      "inputs": [
        {
          "internalType": "uint256",
          "name": "",
          "type": "uint256"
        }
      ],
      "name": "tokenURIs",
      "outputs": [
        {
          "internalType": "string",
          "name": "",
          "type": "string"
        }
      ],
      "stateMutability": "view",
      "type": "function"
    },
    {
      "inputs": [
        {
          "internalType": "address",
          "name": "newOwner",
          "type": "address"
        }
      ],
      "name": "transferOwnership",
      "outputs": [],
      "stateMutability": "nonpayable",
      "type": "function"
    },
    {
      "inputs": [
        {
          "internalType": "uint256",
          "name": "id",
          "type": "uint256"
        }
      ],
      "name": "uri",
      "outputs": [
        {
          "internalType": "string",
          "name": "",
          "type": "string"
        }
      ],
      "stateMutability": "view",
      "type": "function"
    },
    {
      "inputs": [],
      "name": "withdraw",
      "outputs": [],
      "stateMutability": "nonpayable",
      "type": "function"
    }
  ],
  "bytecode": {
    "object": "0x60c060405260086080908152672bb4bd3d102baa2360c11b60a0526003906200002990826200017d565b50604080518082019091526004808252632ba4ad2d60e11b6020830152906200005390826200017d565b503480156200006157600080fd5b5060405162001acd38038062001acd833981016040819052620000849162000249565b600280546001600160a01b0319166001600160a01b0383169081179091556040518291906000907f8be0079c531659141344cd1fd0a4f28419497f9722a3daafe3b4186f6b6457e0908290a350506200027b565b634e487b7160e01b600052604160045260246000fd5b600181811c908216806200010357607f821691505b6020821081036200012457634e487b7160e01b600052602260045260246000fd5b50919050565b601f8211156200017857600081815260208120601f850160051c81016020861015620001535750805b601f850160051c820191505b8181101562000174578281556001016200015f565b5050505b505050565b81516001600160401b03811115620001995762000199620000d8565b620001b181620001aa8454620000ee565b846200012a565b602080601f831160018114620001e95760008415620001d05750858301515b600019600386901b1c1916600185901b17855562000174565b600085815260208120601f198616915b828110156200021a57888601518255948401946001909101908401620001f9565b5085821015620002395787850151600019600388901b60f8161c191681555b5050505050600190811b01905550565b6000602082840312156200025c57600080fd5b81516001600160a01b03811681146200027457600080fd5b9392505050565b611842806200028b6000396000f3fe608060405234801561001057600080fd5b50600436106101205760003560e01c80636c8b703f116100ad578063a22cb46511610071578063a22cb46514610287578063e985e9c51461029a578063f242432a146102c8578063f2fde38b146102db578063f46eccc4146102ee57600080fd5b80636c8b703f1461021b578063731133e91461022e5780638da5cb5b1461024157806395d89b411461026c578063983b2d561461027457600080fd5b8063162094c4116100f4578063162094c4146101ab5780632693ebf2146101c05780632eb2c2d6146101e05780633ccfd60b146101f35780634e1273f4146101fb57600080fd5b8062fdd58e1461012557806301ffc9a71461016057806306fdde03146101835780630e89341c14610198575b600080fd5b61014d610133366004610fdf565b600060208181529281526040808220909352908152205481565b6040519081526020015b60405180910390f35b61017361016e36600461101f565b610311565b6040519015158152602001610157565b61018b610363565b6040516101579190611089565b61018b6101a636600461109c565b6103f1565b6101be6101b93660046110fe565b6104f1565b005b61014d6101ce36600461109c565b60066020526000908152604090205481565b6101be6101ee36600461118f565b610574565b6101be610817565b61020e61020936600461124a565b610870565b60405161015791906112b6565b61018b61022936600461109c565b6109a5565b6101be61023c3660046112fa565b6109be565b600254610254906001600160a01b031681565b6040516001600160a01b039091168152602001610157565b61018b610b4a565b6101be610282366004611362565b610b57565b6101be61029536600461137d565b610ba5565b6101736102a83660046113b9565b600160209081526000928352604080842090915290825290205460ff1681565b6101be6102d63660046113ec565b610c11565b6101be6102e9366004611362565b610e0b565b6101736102fc366004611362565b60076020526000908152604090205460ff1681565b60006301ffc9a760e01b6001600160e01b0319831614806103425750636cdb3d1360e11b6001600160e01b03198316145b8061035d57506303a24d0760e21b6001600160e01b03198316145b92915050565b6003805461037090611464565b80601f016020809104026020016040519081016040528092919081815260200182805461039c90611464565b80156103e95780601f106103be576101008083540402835291602001916103e9565b820191906000526020600020905b8154815290600101906020018083116103cc57829003601f168201915b505050505081565b60008181526005602052604081208054606092919061040f90611464565b9050116104535760405162461bcd60e51b815260206004820152600d60248201526c26a4a9a9a4a723afaa27a5a2a760991b60448201526064015b60405180910390fd5b6000828152600560205260409020805461046c90611464565b80601f016020809104026020016040519081016040528092919081815260200182805461049890611464565b80156104e55780601f106104ba576101008083540402835291602001916104e5565b820191906000526020600020905b8154815290600101906020018083116104c857829003601f168201915b50505050509050919050565b6002546001600160a01b0316331461051b5760405162461bcd60e51b815260040161044a9061149e565b827f6bb7ff708619ba0610cba295a58592e0451dee2622938c8755667688daf3529b838360405161054d9291906114ed565b60405180910390a2600083815260056020526040902061056e82848361156a565b50505050565b8483146105b55760405162461bcd60e51b815260206004820152600f60248201526e0988a9c8ea890be9a92a69a82a8869608b1b604482015260640161044a565b336001600160a01b03891614806105ef57506001600160a01b038816600090815260016020908152604080832033845290915290205460ff165b61062c5760405162461bcd60e51b815260206004820152600e60248201526d1393d517d055551213d49256915160921b604482015260640161044a565b60008060005b878110156106e75788888281811061064c5761064c61162a565b9050602002013592508686828181106106675761066761162a565b6001600160a01b038e16600090815260208181526040808320898452825282208054939091029490940135955085939250906106a4908490611656565b90915550506001600160a01b038a16600090815260208181526040808320868452909152812080548492906106da908490611669565b9091555050600101610632565b50886001600160a01b03168a6001600160a01b0316336001600160a01b03167f4a39dc06d4c0dbc64b70af90fd698a233a518aa5d07e595d983b8c0526c8f7fb8b8b8b8b60405161073b94939291906116ae565b60405180910390a46001600160a01b0389163b156107e25760405163bc197c8160e01b808252906001600160a01b038b169063bc197c819061078f9033908f908e908e908e908e908e908e906004016116e0565b6020604051808303816000875af11580156107ae573d6000803e3d6000fd5b505050506040513d601f19601f820116820180604052508101906107d29190611744565b6001600160e01b031916146107ef565b6001600160a01b03891615155b61080b5760405162461bcd60e51b815260040161044a90611761565b50505050505050505050565b6002546001600160a01b031633146108415760405162461bcd60e51b815260040161044a9061149e565b60405133904780156108fc02916000818181858888f1935050505015801561086d573d6000803e3d6000fd5b50565b60608382146108b35760405162461bcd60e51b815260206004820152600f60248201526e0988a9c8ea890be9a92a69a82a8869608b1b604482015260640161044a565b8367ffffffffffffffff8111156108cc576108cc611509565b6040519080825280602002602001820160405280156108f5578160200160208202803683370190505b50905060005b8481101561099c576000808787848181106109185761091861162a565b905060200201602081019061092d9190611362565b6001600160a01b03166001600160a01b0316815260200190815260200160002060008585848181106109615761096161162a565b905060200201358152602001908152602001600020548282815181106109895761098961162a565b60209081029190910101526001016108fb565b50949350505050565b6005602052600090815260409020805461037090611464565b3360009081526007602052604090205460ff16806109e657506002546001600160a01b031633145b610a465760405162461bcd60e51b815260206004820152602b60248201527f6f6e6c79206d696e746572206f72206f776e65722063616e2063616c6c20746860448201526a34b990333ab731ba34b7b760a91b606482015260840161044a565b3360009081526007602052604090205460ff16158015610a7157506002546001600160a01b03163314155b15610a8f57604051638d2c054b60e01b815260040160405180910390fd5b60008311610ad05760405162461bcd60e51b815260206004820152600e60248201526d1253959053125117d05353d5539560921b604482015260640161044a565b600084815260066020526040902054610aea908490611669565b6006600086815260200190815260200160002081905550610b4385858585858080601f016020809104026020016040519081016040528093929190818152602001838380828437600092019190915250610e8192505050565b5050505050565b6004805461037090611464565b6002546001600160a01b03163314610b815760405162461bcd60e51b815260040161044a9061149e565b6001600160a01b03166000908152600760205260409020805460ff19166001179055565b3360008181526001602090815260408083206001600160a01b03871680855290835292819020805460ff191686151590811790915590519081529192917f17307eab39ab6107e8899845ad3d59bd9653f200f220920489ca2b5937696c31910160405180910390a35050565b336001600160a01b0387161480610c4b57506001600160a01b038616600090815260016020908152604080832033845290915290205460ff165b610c885760405162461bcd60e51b815260206004820152600e60248201526d1393d517d055551213d49256915160921b604482015260640161044a565b6001600160a01b03861660009081526020818152604080832087845290915281208054859290610cb9908490611656565b90915550506001600160a01b03851660009081526020818152604080832087845290915281208054859290610cef908490611669565b909155505060408051858152602081018590526001600160a01b03808816929089169133917fc3d58168c5ae7397731d063d5bbf3d657854427343f4c083240f7aacaa2d0f62910160405180910390a46001600160a01b0385163b15610dda5760405163f23a6e6160e01b808252906001600160a01b0387169063f23a6e6190610d879033908b908a908a908a908a9060040161178b565b6020604051808303816000875af1158015610da6573d6000803e3d6000fd5b505050506040513d601f19601f82011682018060405250810190610dca9190611744565b6001600160e01b03191614610de7565b6001600160a01b03851615155b610e035760405162461bcd60e51b815260040161044a90611761565b505050505050565b6002546001600160a01b03163314610e355760405162461bcd60e51b815260040161044a9061149e565b600280546001600160a01b0319166001600160a01b03831690811790915560405133907f8be0079c531659141344cd1fd0a4f28419497f9722a3daafe3b4186f6b6457e090600090a350565b6001600160a01b03841660009081526020818152604080832086845290915281208054849290610eb2908490611669565b909155505060408051848152602081018490526001600160a01b0386169160009133917fc3d58168c5ae7397731d063d5bbf3d657854427343f4c083240f7aacaa2d0f62910160405180910390a46001600160a01b0384163b15610f9a5760405163f23a6e6160e01b808252906001600160a01b0386169063f23a6e6190610f479033906000908990899089906004016117d2565b6020604051808303816000875af1158015610f66573d6000803e3d6000fd5b505050506040513d601f19601f82011682018060405250810190610f8a9190611744565b6001600160e01b03191614610fa7565b6001600160a01b03841615155b61056e5760405162461bcd60e51b815260040161044a90611761565b80356001600160a01b0381168114610fda57600080fd5b919050565b60008060408385031215610ff257600080fd5b610ffb83610fc3565b946020939093013593505050565b6001600160e01b03198116811461086d57600080fd5b60006020828403121561103157600080fd5b813561103c81611009565b9392505050565b6000815180845260005b818110156110695760208185018101518683018201520161104d565b506000602082860101526020601f19601f83011685010191505092915050565b60208152600061103c6020830184611043565b6000602082840312156110ae57600080fd5b5035919050565b60008083601f8401126110c757600080fd5b50813567ffffffffffffffff8111156110df57600080fd5b6020830191508360208285010111156110f757600080fd5b9250929050565b60008060006040848603121561111357600080fd5b83359250602084013567ffffffffffffffff81111561113157600080fd5b61113d868287016110b5565b9497909650939450505050565b60008083601f84011261115c57600080fd5b50813567ffffffffffffffff81111561117457600080fd5b6020830191508360208260051b85010111156110f757600080fd5b60008060008060008060008060a0898b0312156111ab57600080fd5b6111b489610fc3565b97506111c260208a01610fc3565b9650604089013567ffffffffffffffff808211156111df57600080fd5b6111eb8c838d0161114a565b909850965060608b013591508082111561120457600080fd5b6112108c838d0161114a565b909650945060808b013591508082111561122957600080fd5b506112368b828c016110b5565b999c989b5096995094979396929594505050565b6000806000806040858703121561126057600080fd5b843567ffffffffffffffff8082111561127857600080fd5b6112848883890161114a565b9096509450602087013591508082111561129d57600080fd5b506112aa8782880161114a565b95989497509550505050565b6020808252825182820181905260009190848201906040850190845b818110156112ee578351835292840192918401916001016112d2565b50909695505050505050565b60008060008060006080868803121561131257600080fd5b61131b86610fc3565b94506020860135935060408601359250606086013567ffffffffffffffff81111561134557600080fd5b611351888289016110b5565b969995985093965092949392505050565b60006020828403121561137457600080fd5b61103c82610fc3565b6000806040838503121561139057600080fd5b61139983610fc3565b9150602083013580151581146113ae57600080fd5b809150509250929050565b600080604083850312156113cc57600080fd5b6113d583610fc3565b91506113e360208401610fc3565b90509250929050565b60008060008060008060a0878903121561140557600080fd5b61140e87610fc3565b955061141c60208801610fc3565b94506040870135935060608701359250608087013567ffffffffffffffff81111561144657600080fd5b61145289828a016110b5565b979a9699509497509295939492505050565b600181811c9082168061147857607f821691505b60208210810361149857634e487b7160e01b600052602260045260246000fd5b50919050565b6020808252600c908201526b15539055551213d49256915160a21b604082015260600190565b81835281816020850137506000828201602090810191909152601f909101601f19169091010190565b6020815260006115016020830184866114c4565b949350505050565b634e487b7160e01b600052604160045260246000fd5b601f82111561156557600081815260208120601f850160051c810160208610156115465750805b601f850160051c820191505b81811015610e0357828155600101611552565b505050565b67ffffffffffffffff83111561158257611582611509565b611596836115908354611464565b8361151f565b6000601f8411600181146115ca57600085156115b25750838201355b600019600387901b1c1916600186901b178355610b43565b600083815260209020601f19861690835b828110156115fb57868501358255602094850194600190920191016115db565b50868210156116185760001960f88860031b161c19848701351681555b505060018560011b0183555050505050565b634e487b7160e01b600052603260045260246000fd5b634e487b7160e01b600052601160045260246000fd5b8181038181111561035d5761035d611640565b8082018082111561035d5761035d611640565b81835260006001600160fb1b0383111561169557600080fd5b8260051b80836020870137939093016020019392505050565b6040815260006116c260408301868861167c565b82810360208401526116d581858761167c565b979650505050505050565b6001600160a01b0389811682528816602082015260a06040820181905260009061170d908301888a61167c565b828103606084015261172081878961167c565b905082810360808401526117358185876114c4565b9b9a5050505050505050505050565b60006020828403121561175657600080fd5b815161103c81611009565b60208082526010908201526f155394d0519157d49150d2541251539560821b604082015260600190565b6001600160a01b03878116825286166020820152604081018590526060810184905260a0608082018190526000906117c690830184866114c4565b98975050505050505050565b6001600160a01b03868116825285166020820152604081018490526060810183905260a0608082018190526000906116d59083018461104356fea26469706673582212206d8560784b4b4a22a4f235b8a414150b6b69a04f7972e5f0aafe15d436e8ce8f64736f6c63430008100033",
    "linkReferences": {}
  },
  "methodIdentifiers": {
    "addMinter(address)": "983b2d56",
    "balanceOf(address,uint256)": "00fdd58e",
    "balanceOfBatch(address[],uint256[])": "4e1273f4",
    "isApprovedForAll(address,address)": "e985e9c5",
    "mint(address,uint256,uint256,bytes)": "731133e9",
    "minters(address)": "f46eccc4",
    "name()": "06fdde03",
    "owner()": "8da5cb5b",
    "safeBatchTransferFrom(address,address,uint256[],uint256[],bytes)": "2eb2c2d6",
    "safeTransferFrom(address,address,uint256,uint256,bytes)": "f242432a",
    "setApprovalForAll(address,bool)": "a22cb465",
    "setTokenURI(uint256,string)": "162094c4",
    "supportsInterface(bytes4)": "01ffc9a7",
    "symbol()": "95d89b41",
    "tokenSupply(uint256)": "2693ebf2",
    "tokenURIs(uint256)": "6c8b703f",
    "transferOwnership(address)": "f2fde38b",
    "uri(uint256)": "0e89341c",
    "withdraw()": "3ccfd60b"
  },
  "id": 21
}